{"abi":[{"type":"constructor","inputs":[],"stateMutability":"nonpayable"},{"type":"function","name":"MAX_REFERRAL_FEE","inputs":[],"outputs":[{"name":"","type":"uint256","internalType":"uint256"}],"stateMutability":"view"},{"type":"function","name":"acceptFeeManager","inputs":[],"outputs":[],"stateMutability":"nonpayable"},{"type":"function","name":"addAuthorizedAccount","inputs":[{"name":"account","type":"address","internalType":"address"}],"outputs":[],"stateMutability":"nonpayable"},{"type":"function","name":"allPairs","inputs":[{"name":"","type":"uint256","internalType":"uint256"}],"outputs":[{"name":"","type":"address","internalType":"address"}],"stateMutability":"view"},{"type":"function","name":"allPairsLength","inputs":[],"outputs":[{"name":"","type":"uint256","internalType":"uint256"}],"stateMutability":"view"},{"type":"function","name":"authorizedAccounts","inputs":[{"name":"","type":"address","internalType":"address"}],"outputs":[{"name":"","type":"bool","internalType":"bool"}],"stateMutability":"view"},{"type":"function","name":"createPair","inputs":[{"name":"tokenA","type":"address","internalType":"address"},{"name":"tokenB","type":"address","internalType":"address"},{"name":"stable","type":"bool","internalType":"bool"}],"outputs":[{"name":"pair","type":"address","internalType":"address"}],"stateMutability":"nonpayable"},{"type":"function","name":"customFees","inputs":[{"name":"","type":"address","internalType":"address"}],"outputs":[{"name":"","type":"uint256","internalType":"uint256"}],"stateMutability":"view"},{"type":"function","name":"customReferralFees","inputs":[{"name":"","type":"address","internalType":"address"}],"outputs":[{"name":"","type":"uint256","internalType":"uint256"}],"stateMutability":"view"},{"type":"function","name":"dibs","inputs":[],"outputs":[{"name":"","type":"address","internalType":"address"}],"stateMutability":"view"},{"type":"function","name":"feeManager","inputs":[],"outputs":[{"name":"","type":"address","internalType":"address"}],"stateMutability":"view"},{"type":"function","name":"getFee","inputs":[{"name":"_pairAddress","type":"address","internalType":"address"},{"name":"_stable","type":"bool","internalType":"bool"}],"outputs":[{"name":"","type":"uint256","internalType":"uint256"}],"stateMutability":"view"},{"type":"function","name":"getPair","inputs":[{"name":"","type":"address","internalType":"address"},{"name":"","type":"address","internalType":"address"},{"name":"","type":"bool","internalType":"bool"}],"outputs":[{"name":"","type":"address","internalType":"address"}],"stateMutability":"view"},{"type":"function","name":"getReferralFee","inputs":[{"name":"_pairAddress","type":"address","internalType":"address"}],"outputs":[{"name":"","type":"uint256","internalType":"uint256"}],"stateMutability":"view"},{"type":"function","name":"initialize","inputs":[{"name":"_pairGenerator","type":"address","internalType":"address"}],"outputs":[],"stateMutability":"nonpayable"},{"type":"function","name":"isPair","inputs":[{"name":"","type":"address","internalType":"address"}],"outputs":[{"name":"","type":"bool","internalType":"bool"}],"stateMutability":"view"},{"type":"function","name":"isPaused","inputs":[],"outputs":[{"name":"","type":"bool","internalType":"bool"}],"stateMutability":"view"},{"type":"function","name":"owner","inputs":[],"outputs":[{"name":"","type":"address","internalType":"address"}],"stateMutability":"view"},{"type":"function","name":"pairCodeHash","inputs":[],"outputs":[{"name":"","type":"bytes32","internalType":"bytes32"}],"stateMutability":"view"},{"type":"function","name":"pairGenerator","inputs":[],"outputs":[{"name":"","type":"address","internalType":"address"}],"stateMutability":"view"},{"type":"function","name":"pendingFeeManager","inputs":[],"outputs":[{"name":"","type":"address","internalType":"address"}],"stateMutability":"view"},{"type":"function","name":"removeAuthorizedAccount","inputs":[{"name":"account","type":"address","internalType":"address"}],"outputs":[],"stateMutability":"nonpayable"},{"type":"function","name":"renounceOwnership","inputs":[],"outputs":[],"stateMutability":"nonpayable"},{"type":"function","name":"setCustomFees","inputs":[{"name":"_pairAddress","type":"address","internalType":"address"},{"name":"_fees","type":"uint256","internalType":"uint256"}],"outputs":[],"stateMutability":"nonpayable"},{"type":"function","name":"setCustomReferralFee","inputs":[{"name":"_pairAddress","type":"address","internalType":"address"},{"name":"_refFee","type":"uint256","internalType":"uint256"}],"outputs":[],"stateMutability":"nonpayable"},{"type":"function","name":"setDibs","inputs":[{"name":"_dibs","type":"address","internalType":"address"}],"outputs":[],"stateMutability":"nonpayable"},{"type":"function","name":"setFee","inputs":[{"name":"_stable","type":"bool","internalType":"bool"},{"name":"_fee","type":"uint256","internalType":"uint256"}],"outputs":[],"stateMutability":"nonpayable"},{"type":"function","name":"setFeeManager","inputs":[{"name":"_feeManager","type":"address","internalType":"address"}],"outputs":[],"stateMutability":"nonpayable"},{"type":"function","name":"setPause","inputs":[{"name":"_state","type":"bool","internalType":"bool"}],"outputs":[],"stateMutability":"nonpayable"},{"type":"function","name":"setReferralFee","inputs":[{"name":"_refFee","type":"uint256","internalType":"uint256"}],"outputs":[],"stateMutability":"nonpayable"},{"type":"function","name":"stableFee","inputs":[],"outputs":[{"name":"","type":"uint256","internalType":"uint256"}],"stateMutability":"view"},{"type":"function","name":"transferOwnership","inputs":[{"name":"newOwner","type":"address","internalType":"address"}],"outputs":[],"stateMutability":"nonpayable"},{"type":"function","name":"version","inputs":[],"outputs":[{"name":"","type":"string","internalType":"string"}],"stateMutability":"pure"},{"type":"function","name":"volatileFee","inputs":[],"outputs":[{"name":"","type":"uint256","internalType":"uint256"}],"stateMutability":"view"},{"type":"event","name":"AuthorizedAccountAdded","inputs":[{"name":"account","type":"address","indexed":true,"internalType":"address"}],"anonymous":false},{"type":"event","name":"AuthorizedAccountRemoved","inputs":[{"name":"account","type":"address","indexed":true,"internalType":"address"}],"anonymous":false},{"type":"event","name":"CustomFeesSet","inputs":[{"name":"pairAddress","type":"address","indexed":true,"internalType":"address"},{"name":"fees","type":"uint256","indexed":false,"internalType":"uint256"}],"anonymous":false},{"type":"event","name":"Initialized","inputs":[{"name":"version","type":"uint8","indexed":false,"internalType":"uint8"}],"anonymous":false},{"type":"event","name":"OwnershipTransferred","inputs":[{"name":"previousOwner","type":"address","indexed":true,"internalType":"address"},{"name":"newOwner","type":"address","indexed":true,"internalType":"address"}],"anonymous":false},{"type":"event","name":"PairCreated","inputs":[{"name":"token0","type":"address","indexed":true,"internalType":"address"},{"name":"token1","type":"address","indexed":true,"internalType":"address"},{"name":"stable","type":"bool","indexed":false,"internalType":"bool"},{"name":"pair","type":"address","indexed":false,"internalType":"address"},{"name":"","type":"uint256","indexed":false,"internalType":"uint256"}],"anonymous":false}],"bytecode":{"object":"0x608060405234801561000f575f80fd5b5061149d8061001d5f395ff3fe608060405234801561000f575f80fd5b50600436106101fd575f3560e01c806382dfdce411610114578063bedb86fb116100a9578063e1f76b4411610079578063e1f76b441461048c578063e5e31b131461049f578063f2fde38b146104c1578063f65bd0b7146104d4578063f94c53c7146104e7575f80fd5b8063bedb86fb14610440578063c4d66de814610453578063cc56b2c514610466578063d0fb020314610479575f80fd5b8063a924c043116100e4578063a924c043146103fa578063b187bd261461040d578063b6ce6cbc1461041a578063be47aa091461042d575f80fd5b806382dfdce4146103bb5780638a4fa0d2146103ce5780638da5cb5b146103e15780639aab9248146103f2575f80fd5b8063472d35b9116101955780636801cc30116101655780636801cc3014610341578063713494d71461037a578063715018a61461038d5780637638310f146103955780637be1623e146103a8575f80fd5b8063472d35b9146102e95780635084ed03146102fc57806354fd4d5014610305578063574f2ba314610339575f80fd5b806324ba5884116101d057806324ba58841461027c5780632c67be37146102ae57806340b5306e146102cd57806340bbd775146102e0575f80fd5b80630c74db12146102015780631e3dd18b146102165780631e61079c1461024657806322ba6d931461025d575b5f80fd5b61021461020f366004611262565b6104ef565b005b610229610224366004611284565b61057f565b6040516001600160a01b0390911681526020015b60405180910390f35b61024f60685481565b60405190815260200161023d565b61024f61026b366004611262565b60716020525f908152604090205481565b61029e61028a366004611262565b60726020525f908152604090205460ff1681565b604051901515815260200161023d565b61024f6102bc366004611262565b60706020525f908152604090205481565b6102146102db36600461129b565b6105a7565b61024f60665481565b6102146102f7366004611262565b6106b1565b61024f60675481565b60408051808201825260128152712830b4b92330b1ba37b93c903b189719171960711b6020820152905161023d91906112c5565b606e5461024f565b61022961034f366004611324565b606d60209081525f93845260408085208252928452828420905282529020546001600160a01b031681565b610214610388366004611284565b6106fd565b610214610764565b6102146103a336600461129b565b610777565b606b54610229906001600160a01b031681565b6102296103c9366004611324565b610844565b606a54610229906001600160a01b031681565b6033546001600160a01b0316610229565b61024f610b50565b610214610408366004611262565b610bc0565b60655461029e9060ff1681565b61024f610428366004611262565b610cd7565b61021461043b366004611262565b610d05565b61021461044e366004611368565b610e11565b610214610461366004611262565b610e4e565b61024f610474366004611381565b610f9b565b606954610229906001600160a01b031681565b61021461049a3660046113b4565b610fdb565b61029e6104ad366004611262565b606f6020525f908152604090205460ff1681565b6102146104cf366004611262565b611084565b606c54610229906001600160a01b031681565b6102146110fd565b6069546001600160a01b031633146105225760405162461bcd60e51b8152600401610519906113ce565b60405180910390fd5b6001600160a01b03811661055d5760405162461bcd60e51b81526020600482015260026024820152615a4160f01b6044820152606401610519565b606b80546001600160a01b0319166001600160a01b0392909216919091179055565b606e818154811061058e575f80fd5b5f918252602090912001546001600160a01b0316905081565b6069546001600160a01b031633146105d15760405162461bcd60e51b8152600401610519906113ce565b6101f48111156106095760405162461bcd60e51b815260206004820152600360248201526248464560e81b6044820152606401610519565b6001600160a01b0382165f908152606f602052604090205460ff166106595760405162461bcd60e51b8152600401610519906020808252600490820152630494e56560e41b604082015260600190565b6001600160a01b0382165f8181526070602052604090819020839055517f590e1eb491252c5f818ad75f5c0f5d53e6d1dfa8c3e4766f69e4b2dc7773bf2f906106a59084815260200190565b60405180910390a25050565b6069546001600160a01b031633146106db5760405162461bcd60e51b8152600401610519906113ce565b606a80546001600160a01b0319166001600160a01b0392909216919091179055565b6069546001600160a01b031633146107275760405162461bcd60e51b8152600401610519906113ce565b6101f481111561075f5760405162461bcd60e51b815260206004820152600360248201526252464560e81b6044820152606401610519565b606855565b61076c61114b565b6107755f6111a5565b565b6069546001600160a01b031633146107a15760405162461bcd60e51b8152600401610519906113ce565b6101f48111156107d95760405162461bcd60e51b815260206004820152600360248201526252464560e81b6044820152606401610519565b6001600160a01b0382165f908152606f602052604090205460ff166108295760405162461bcd60e51b8152600401610519906020808252600490820152630494e56560e41b604082015260600190565b6001600160a01b039091165f90815260716020526040902055565b335f9081526072602052604081205460ff168061086b57506069546001600160a01b031633145b6108b75760405162461bcd60e51b815260206004820152601960248201527f6e6f74206d616e61676572206f7220617574686f72697a6564000000000000006044820152606401610519565b826001600160a01b0316846001600160a01b0316036108fd5760405162461bcd60e51b8152602060048201526002602482015261494160f01b6044820152606401610519565b5f80846001600160a01b0316866001600160a01b03161061091f578486610922565b85855b90925090506001600160a01b0382166109625760405162461bcd60e51b81526020600482015260026024820152615a4160f01b6044820152606401610519565b6001600160a01b038281165f908152606d6020908152604080832085851684528252808320881515845290915290205416156109c65760405162461bcd60e51b8152602060048201526003602482015262215a4160e81b6044820152606401610519565b606c546040516320b7f73960e21b81526001600160a01b03848116600483015283811660248301528615156044830152909116906382dfdce4906064016020604051808303815f875af1158015610a1f573d5f803e3d5ffd5b505050506040513d601f19601f82011682018060405250810190610a4391906113ea565b6001600160a01b038781165f818152606d602081815260408084208c87168086529083528185208c151580875290845282862080548a8a166001600160a01b0319918216811790925592875294845282862096865295835281852086865283528185208054821685179055606e8054600181810183557f9930d9ff0dee0ef5ca2f7710ea66b8f84dd0f5f5351ecffe72b952cd9db7142a90910180549093168617909255848652606f845294829020805460ff1916909117905592548351948552908401919091529082015291945082811691908416907fc4805696c66d7cf352fc1d6bb633ad5ee82f6cb577c453024b6e0eb8306c6fc99060600160405180910390a350509392505050565b606c5460408051631355724960e31b815290515f926001600160a01b031691639aab92489160048083019260209291908290030181865afa158015610b97573d5f803e3d5ffd5b505050506040513d601f19601f82011682018060405250810190610bbb9190611405565b905090565b6069546001600160a01b03163314610bea5760405162461bcd60e51b8152600401610519906113ce565b6001600160a01b038116610c2f5760405162461bcd60e51b815260206004820152600c60248201526b7a65726f206164647265737360a01b6044820152606401610519565b6001600160a01b0381165f9081526072602052604090205460ff1615610c8c5760405162461bcd60e51b8152602060048201526012602482015271185b1c9958591e48185d5d1a1bdc9a5e995960721b6044820152606401610519565b6001600160a01b0381165f81815260726020526040808220805460ff19166001179055517f5d4494741d465e91754a74831c82925e4f848bc6c191d4324527b5a1e9628ed49190a250565b6001600160a01b0381165f908152607160205260408120548015610cfb5792915050565b5050606854919050565b6069546001600160a01b03163314610d2f5760405162461bcd60e51b8152600401610519906113ce565b6001600160a01b038116610d745760405162461bcd60e51b815260206004820152600c60248201526b7a65726f206164647265737360a01b6044820152606401610519565b6001600160a01b0381165f9081526072602052604090205460ff16610dc95760405162461bcd60e51b815260206004820152600b60248201526a08585d5d1a1bdc9a5e995960aa1b6044820152606401610519565b6001600160a01b0381165f81815260726020526040808220805460ff19169055517f56a53756e1db2ff35a90edee9bd205b4b2bb8633ee3d6a53a5e85d5b46f0e9dc9190a250565b6033546001600160a01b03163314610e3b5760405162461bcd60e51b8152600401610519906113ce565b6065805460ff1916911515919091179055565b5f54610100900460ff1615808015610e6c57505f54600160ff909116105b80610e855750303b158015610e8557505f5460ff166001145b610ee85760405162461bcd60e51b815260206004820152602e60248201527f496e697469616c697a61626c653a20636f6e747261637420697320616c72656160448201526d191e481a5b9a5d1a585b1a5e995960921b6064820152608401610519565b5f805460ff191660011790558015610f09575f805461ff0019166101001790555b610f116111f6565b6065805460ff1916905560698054336001600160a01b0319918216179091556005606655603c6067555f606855606c80549091166001600160a01b0384161790558015610f97575f805461ff0019169055604051600181527f7f26b83ff96e1f2b6a682f133852f6798a09c465da95921460cefb38474024989060200160405180910390a15b5050565b6001600160a01b0382165f908152607060205260408120548015610fc0579050610fd5565b82610fcd57606754610fd1565b6066545b9150505b92915050565b6069546001600160a01b031633146110055760405162461bcd60e51b8152600401610519906113ce565b6101f481111561103d5760405162461bcd60e51b815260206004820152600360248201526248464560e81b6044820152606401610519565b805f036110725760405162461bcd60e51b81526020600482015260036024820152625a464560e81b6044820152606401610519565b811561107e5760665550565b60675550565b61108c61114b565b6001600160a01b0381166110f15760405162461bcd60e51b815260206004820152602660248201527f4f776e61626c653a206e6577206f776e657220697320746865207a65726f206160448201526564647265737360d01b6064820152608401610519565b6110fa816111a5565b50565b606a546001600160a01b031633146111275760405162461bcd60e51b8152600401610519906113ce565b606a54606980546001600160a01b0319166001600160a01b03909216919091179055565b6033546001600160a01b031633146107755760405162461bcd60e51b815260206004820181905260248201527f4f776e61626c653a2063616c6c6572206973206e6f7420746865206f776e65726044820152606401610519565b603380546001600160a01b038381166001600160a01b0319831681179093556040519116919082907f8be0079c531659141344cd1fd0a4f28419497f9722a3daafe3b4186f6b6457e0905f90a35050565b5f54610100900460ff1661121c5760405162461bcd60e51b81526004016105199061141c565b6107755f54610100900460ff166112455760405162461bcd60e51b81526004016105199061141c565b610775336111a5565b6001600160a01b03811681146110fa575f80fd5b5f60208284031215611272575f80fd5b813561127d8161124e565b9392505050565b5f60208284031215611294575f80fd5b5035919050565b5f80604083850312156112ac575f80fd5b82356112b78161124e565b946020939093013593505050565b5f6020808352835180828501525f5b818110156112f0578581018301518582016040015282016112d4565b505f604082860101526040601f19601f8301168501019250505092915050565b8035801515811461131f575f80fd5b919050565b5f805f60608486031215611336575f80fd5b83356113418161124e565b925060208401356113518161124e565b915061135f60408501611310565b90509250925092565b5f60208284031215611378575f80fd5b61127d82611310565b5f8060408385031215611392575f80fd5b823561139d8161124e565b91506113ab60208401611310565b90509250929050565b5f80604083850312156113c5575f80fd5b6112b783611310565b6020808252600290820152614e4160f01b604082015260600190565b5f602082840312156113fa575f80fd5b815161127d8161124e565b5f60208284031215611415575f80fd5b5051919050565b6020808252602b908201527f496e697469616c697a61626c653a20636f6e7472616374206973206e6f74206960408201526a6e697469616c697a696e6760a81b60608201526080019056fea2646970667358221220f8319c77d7312fc88297d75e7d849e63a50aa14295ec5d69478bf4f15dd1c08a64736f6c63430008140033","linkReferences":{}},"methodIdentifiers":{"MAX_REFERRAL_FEE()":"1e61079c","acceptFeeManager()":"f94c53c7","addAuthorizedAccount(address)":"a924c043","allPairs(uint256)":"1e3dd18b","allPairsLength()":"574f2ba3","authorizedAccounts(address)":"24ba5884","createPair(address,address,bool)":"82dfdce4","customFees(address)":"2c67be37","customReferralFees(address)":"22ba6d93","dibs()":"7be1623e","feeManager()":"d0fb0203","getFee(address,bool)":"cc56b2c5","getPair(address,address,bool)":"6801cc30","getReferralFee(address)":"b6ce6cbc","initialize(address)":"c4d66de8","isPair(address)":"e5e31b13","isPaused()":"b187bd26","owner()":"8da5cb5b","pairCodeHash()":"9aab9248","pairGenerator()":"f65bd0b7","pendingFeeManager()":"8a4fa0d2","removeAuthorizedAccount(address)":"be47aa09","renounceOwnership()":"715018a6","setCustomFees(address,uint256)":"40b5306e","setCustomReferralFee(address,uint256)":"7638310f","setDibs(address)":"0c74db12","setFee(bool,uint256)":"e1f76b44","setFeeManager(address)":"472d35b9","setPause(bool)":"bedb86fb","setReferralFee(uint256)":"713494d7","stableFee()":"40bbd775","transferOwnership(address)":"f2fde38b","version()":"54fd4d50","volatileFee()":"5084ed03"},"id":31}