{"abi":[{"type":"constructor","inputs":[{"name":"_poolDeployer","type":"address","internalType":"address"}],"stateMutability":"nonpayable"},{"type":"function","name":"CUSTOM_POOL_DEPLOYER","inputs":[],"outputs":[{"name":"","type":"bytes32","internalType":"bytes32"}],"stateMutability":"view"},{"type":"function","name":"DEFAULT_ADMIN_ROLE","inputs":[],"outputs":[{"name":"","type":"bytes32","internalType":"bytes32"}],"stateMutability":"view"},{"type":"function","name":"POOLS_ADMINISTRATOR_ROLE","inputs":[],"outputs":[{"name":"","type":"bytes32","internalType":"bytes32"}],"stateMutability":"view"},{"type":"function","name":"POOL_INIT_CODE_HASH","inputs":[],"outputs":[{"name":"","type":"bytes32","internalType":"bytes32"}],"stateMutability":"view"},{"type":"function","name":"acceptOwnership","inputs":[],"outputs":[],"stateMutability":"nonpayable"},{"type":"function","name":"allPairs","inputs":[{"name":"","type":"uint256","internalType":"uint256"}],"outputs":[{"name":"","type":"address","internalType":"address"}],"stateMutability":"view"},{"type":"function","name":"allPairsLength","inputs":[],"outputs":[{"name":"","type":"uint256","internalType":"uint256"}],"stateMutability":"view"},{"type":"function","name":"computeCustomPoolAddress","inputs":[{"name":"deployer","type":"address","internalType":"address"},{"name":"token0","type":"address","internalType":"address"},{"name":"token1","type":"address","internalType":"address"}],"outputs":[{"name":"customPool","type":"address","internalType":"address"}],"stateMutability":"view"},{"type":"function","name":"computePoolAddress","inputs":[{"name":"token0","type":"address","internalType":"address"},{"name":"token1","type":"address","internalType":"address"}],"outputs":[{"name":"pool","type":"address","internalType":"address"}],"stateMutability":"view"},{"type":"function","name":"createCustomPool","inputs":[{"name":"deployer","type":"address","internalType":"address"},{"name":"creator","type":"address","internalType":"address"},{"name":"tokenA","type":"address","internalType":"address"},{"name":"tokenB","type":"address","internalType":"address"},{"name":"data","type":"bytes","internalType":"bytes"}],"outputs":[{"name":"customPool","type":"address","internalType":"address"}],"stateMutability":"nonpayable"},{"type":"function","name":"createPool","inputs":[{"name":"tokenA","type":"address","internalType":"address"},{"name":"tokenB","type":"address","internalType":"address"},{"name":"data","type":"bytes","internalType":"bytes"}],"outputs":[{"name":"pool","type":"address","internalType":"address"}],"stateMutability":"nonpayable"},{"type":"function","name":"customPoolByPair","inputs":[{"name":"","type":"address","internalType":"address"},{"name":"","type":"address","internalType":"address"},{"name":"","type":"address","internalType":"address"}],"outputs":[{"name":"","type":"address","internalType":"address"}],"stateMutability":"view"},{"type":"function","name":"defaultCommunityFee","inputs":[],"outputs":[{"name":"","type":"uint16","internalType":"uint16"}],"stateMutability":"view"},{"type":"function","name":"defaultConfigurationForPool","inputs":[],"outputs":[{"name":"communityFee","type":"uint16","internalType":"uint16"},{"name":"tickSpacing","type":"int24","internalType":"int24"},{"name":"fee","type":"uint16","internalType":"uint16"}],"stateMutability":"view"},{"type":"function","name":"defaultFee","inputs":[],"outputs":[{"name":"","type":"uint16","internalType":"uint16"}],"stateMutability":"view"},{"type":"function","name":"defaultPluginFactory","inputs":[],"outputs":[{"name":"","type":"address","internalType":"contract IAlgebraPluginFactory"}],"stateMutability":"view"},{"type":"function","name":"defaultTickspacing","inputs":[],"outputs":[{"name":"","type":"int24","internalType":"int24"}],"stateMutability":"view"},{"type":"function","name":"getRoleAdmin","inputs":[{"name":"role","type":"bytes32","internalType":"bytes32"}],"outputs":[{"name":"","type":"bytes32","internalType":"bytes32"}],"stateMutability":"view"},{"type":"function","name":"getRoleMember","inputs":[{"name":"role","type":"bytes32","internalType":"bytes32"},{"name":"index","type":"uint256","internalType":"uint256"}],"outputs":[{"name":"","type":"address","internalType":"address"}],"stateMutability":"view"},{"type":"function","name":"getRoleMemberCount","inputs":[{"name":"role","type":"bytes32","internalType":"bytes32"}],"outputs":[{"name":"","type":"uint256","internalType":"uint256"}],"stateMutability":"view"},{"type":"function","name":"grantRole","inputs":[{"name":"role","type":"bytes32","internalType":"bytes32"},{"name":"account","type":"address","internalType":"address"}],"outputs":[],"stateMutability":"nonpayable"},{"type":"function","name":"hasRole","inputs":[{"name":"role","type":"bytes32","internalType":"bytes32"},{"name":"account","type":"address","internalType":"address"}],"outputs":[{"name":"","type":"bool","internalType":"bool"}],"stateMutability":"view"},{"type":"function","name":"hasRoleOrOwner","inputs":[{"name":"role","type":"bytes32","internalType":"bytes32"},{"name":"account","type":"address","internalType":"address"}],"outputs":[{"name":"","type":"bool","internalType":"bool"}],"stateMutability":"view"},{"type":"function","name":"owner","inputs":[],"outputs":[{"name":"","type":"address","internalType":"address"}],"stateMutability":"view"},{"type":"function","name":"pendingOwner","inputs":[],"outputs":[{"name":"","type":"address","internalType":"address"}],"stateMutability":"view"},{"type":"function","name":"poolByPair","inputs":[{"name":"","type":"address","internalType":"address"},{"name":"","type":"address","internalType":"address"}],"outputs":[{"name":"","type":"address","internalType":"address"}],"stateMutability":"view"},{"type":"function","name":"poolDeployer","inputs":[],"outputs":[{"name":"","type":"address","internalType":"address"}],"stateMutability":"view"},{"type":"function","name":"renounceOwnership","inputs":[],"outputs":[],"stateMutability":"nonpayable"},{"type":"function","name":"renounceOwnershipStartTimestamp","inputs":[],"outputs":[{"name":"","type":"uint256","internalType":"uint256"}],"stateMutability":"view"},{"type":"function","name":"renounceRole","inputs":[{"name":"role","type":"bytes32","internalType":"bytes32"},{"name":"account","type":"address","internalType":"address"}],"outputs":[],"stateMutability":"nonpayable"},{"type":"function","name":"revokeRole","inputs":[{"name":"role","type":"bytes32","internalType":"bytes32"},{"name":"account","type":"address","internalType":"address"}],"outputs":[],"stateMutability":"nonpayable"},{"type":"function","name":"setDefaultCommunityFee","inputs":[{"name":"newDefaultCommunityFee","type":"uint16","internalType":"uint16"}],"outputs":[],"stateMutability":"nonpayable"},{"type":"function","name":"setDefaultFee","inputs":[{"name":"newDefaultFee","type":"uint16","internalType":"uint16"}],"outputs":[],"stateMutability":"nonpayable"},{"type":"function","name":"setDefaultPluginFactory","inputs":[{"name":"newDefaultPluginFactory","type":"address","internalType":"address"}],"outputs":[],"stateMutability":"nonpayable"},{"type":"function","name":"setDefaultTickspacing","inputs":[{"name":"newDefaultTickspacing","type":"int24","internalType":"int24"}],"outputs":[],"stateMutability":"nonpayable"},{"type":"function","name":"setVaultFactory","inputs":[{"name":"newVaultFactory","type":"address","internalType":"address"}],"outputs":[],"stateMutability":"nonpayable"},{"type":"function","name":"startRenounceOwnership","inputs":[],"outputs":[],"stateMutability":"nonpayable"},{"type":"function","name":"stopRenounceOwnership","inputs":[],"outputs":[],"stateMutability":"nonpayable"},{"type":"function","name":"supportsInterface","inputs":[{"name":"interfaceId","type":"bytes4","internalType":"bytes4"}],"outputs":[{"name":"","type":"bool","internalType":"bool"}],"stateMutability":"view"},{"type":"function","name":"transferOwnership","inputs":[{"name":"newOwner","type":"address","internalType":"address"}],"outputs":[],"stateMutability":"nonpayable"},{"type":"function","name":"vaultFactory","inputs":[],"outputs":[{"name":"","type":"address","internalType":"contract IAlgebraVaultFactory"}],"stateMutability":"view"},{"type":"event","name":"CustomPool","inputs":[{"name":"deployer","type":"address","indexed":true,"internalType":"address"},{"name":"token0","type":"address","indexed":true,"internalType":"address"},{"name":"token1","type":"address","indexed":true,"internalType":"address"},{"name":"pool","type":"address","indexed":false,"internalType":"address"}],"anonymous":false},{"type":"event","name":"DefaultCommunityFee","inputs":[{"name":"newDefaultCommunityFee","type":"uint16","indexed":false,"internalType":"uint16"}],"anonymous":false},{"type":"event","name":"DefaultFee","inputs":[{"name":"newDefaultFee","type":"uint16","indexed":false,"internalType":"uint16"}],"anonymous":false},{"type":"event","name":"DefaultPluginFactory","inputs":[{"name":"defaultPluginFactoryAddress","type":"address","indexed":false,"internalType":"address"}],"anonymous":false},{"type":"event","name":"DefaultTickspacing","inputs":[{"name":"newDefaultTickspacing","type":"int24","indexed":false,"internalType":"int24"}],"anonymous":false},{"type":"event","name":"OwnershipTransferStarted","inputs":[{"name":"previousOwner","type":"address","indexed":true,"internalType":"address"},{"name":"newOwner","type":"address","indexed":true,"internalType":"address"}],"anonymous":false},{"type":"event","name":"OwnershipTransferred","inputs":[{"name":"previousOwner","type":"address","indexed":true,"internalType":"address"},{"name":"newOwner","type":"address","indexed":true,"internalType":"address"}],"anonymous":false},{"type":"event","name":"Pool","inputs":[{"name":"token0","type":"address","indexed":true,"internalType":"address"},{"name":"token1","type":"address","indexed":true,"internalType":"address"},{"name":"pool","type":"address","indexed":false,"internalType":"address"}],"anonymous":false},{"type":"event","name":"RenounceOwnershipFinish","inputs":[{"name":"timestamp","type":"uint256","indexed":false,"internalType":"uint256"}],"anonymous":false},{"type":"event","name":"RenounceOwnershipStart","inputs":[{"name":"timestamp","type":"uint256","indexed":false,"internalType":"uint256"},{"name":"finishTimestamp","type":"uint256","indexed":false,"internalType":"uint256"}],"anonymous":false},{"type":"event","name":"RenounceOwnershipStop","inputs":[{"name":"timestamp","type":"uint256","indexed":false,"internalType":"uint256"}],"anonymous":false},{"type":"event","name":"RoleAdminChanged","inputs":[{"name":"role","type":"bytes32","indexed":true,"internalType":"bytes32"},{"name":"previousAdminRole","type":"bytes32","indexed":true,"internalType":"bytes32"},{"name":"newAdminRole","type":"bytes32","indexed":true,"internalType":"bytes32"}],"anonymous":false},{"type":"event","name":"RoleGranted","inputs":[{"name":"role","type":"bytes32","indexed":true,"internalType":"bytes32"},{"name":"account","type":"address","indexed":true,"internalType":"address"},{"name":"sender","type":"address","indexed":true,"internalType":"address"}],"anonymous":false},{"type":"event","name":"RoleRevoked","inputs":[{"name":"role","type":"bytes32","indexed":true,"internalType":"bytes32"},{"name":"account","type":"address","indexed":true,"internalType":"address"},{"name":"sender","type":"address","indexed":true,"internalType":"address"}],"anonymous":false},{"type":"event","name":"VaultFactory","inputs":[{"name":"newVaultFactory","type":"address","indexed":false,"internalType":"address"}],"anonymous":false}],"bytecode":{"object":"0x60a060405234801562000010575f80fd5b506040516200256e3803806200256e833981016040819052620000339162000499565b6200003e33620000ea565b60016004556001600160a01b03811662000056575f80fd5b6001600160a01b0381166080526005805466ffffffffff00001916649613880000179055604051609681527f7d7979096f943139ebee59f01c077a0f0766d06c40c86d596f23ed2561547cce9060200160405180910390a160405161138881527fddc0c6f0b581e0d51bfe90ff138e4a548f94515c4dbcb12f5e98fdf0f75039839060200160405180910390a15062000510565b620001075f620001015f546001600160a01b031690565b62000143565b62000112816200016d565b5f546001600160a01b0316156200014057620001405f6200013a5f546001600160a01b031690565b62000188565b50565b6200014f8282620001ad565b5f82815260036020526040902062000168908262000230565b505050565b600180546001600160a01b031916905562000140816200024f565b6200019482826200029e565b5f82815260036020526040902062000168908262000340565b5f8281526002602090815260408083206001600160a01b038516845290915290205460ff16156200022c575f8281526002602090815260408083206001600160a01b0385168085529252808320805460ff1916905551339285917ff6391f5c32d9c69d2a47ea670b442974b53935d1edc7fd64eb21e047a839171b9190a45b5050565b5f62000246836001600160a01b03841662000356565b90505b92915050565b5f80546001600160a01b038381166001600160a01b0319831681178455604051919092169283917f8be0079c531659141344cd1fd0a4f28419497f9722a3daafe3b4186f6b6457e09190a35050565b5f8281526002602090815260408083206001600160a01b038516845290915290205460ff166200022c575f8281526002602090815260408083206001600160a01b03851684529091529020805460ff19166001179055620002fc3390565b6001600160a01b0316816001600160a01b0316837f2f8788117e7eff1d82e926ec794901d17c78024a50270940304540a733656f0d60405160405180910390a45050565b5f62000246836001600160a01b0384166200044a565b5f818152600183016020526040812054801562000440575f6200037b600183620004c8565b85549091505f906200039090600190620004c8565b9050818114620003f6575f865f018281548110620003b257620003b2620004e8565b905f5260205f200154905080875f018481548110620003d557620003d5620004e8565b5f918252602080832090910192909255918252600188019052604090208390555b85548690806200040a576200040a620004fc565b600190038181905f5260205f20015f90559055856001015f8681526020019081526020015f205f90556001935050505062000249565b5f91505062000249565b5f8181526001830160205260408120546200049157508154600181810184555f84815260208082209093018490558454848252828601909352604090209190915562000249565b505f62000249565b5f60208284031215620004aa575f80fd5b81516001600160a01b0381168114620004c1575f80fd5b9392505050565b818103818111156200024957634e487b7160e01b5f52601160045260245ffd5b634e487b7160e01b5f52603260045260245ffd5b634e487b7160e01b5f52603160045260245ffd5b6080516120306200053e5f395f81816104000152818161068301528181610c71015261125c01526120305ff3fe608060405234801561000f575f80fd5b506004361061024a575f3560e01c8063715018a611610140578063d0ad2792116100bf578063dbbf3db411610084578063dbbf3db4146105ab578063dc6fd8ab146105be578063e30c3978146105e5578063e8ae2b69146105f6578063f09489ac14610609578063f2fde38b1461061c575f80fd5b8063d0ad27921461052c578063d547741f1461053f578063d8a06f7314610552578063d8ed224114610565578063d9a641e114610578575f80fd5b80639010d07c116101055780639010d07c146104c557806391d14854146104d8578063a217fddf146104eb578063b500a48b146104f2578063ca15c87314610519575f80fd5b8063715018a61461047f578063773265841461048757806379ba50971461049a5780638d5a8711146104a25780638da5cb5b146104b5575f80fd5b806329bc3446116101cc57806336568abe1161019157806336568abe146104355780633ea7fbdb14610448578063469388c41461045b578063574f2ba3146104635780635a6c72d01461046b575f80fd5b806329bc34461461039f5780632f2ff15d146103c75780632f8a39dd146103da5780633119049a146103fb578063321935c614610422575f80fd5b8063238a1d7411610212578063238a1d74146102f257806323da36cc146102fc578063248a9ca31461033557806325b355d6146103575780632939dd971461038c575f80fd5b806301ffc9a71461024e5780630781075414610276578063084bfff9146102ab5780631ba89df4146102b45780631e3dd18b146102df575b5f80fd5b61026161025c366004611b44565b61062f565b60405190151581526020015b60405180910390f35b61029d7fc9cf812513d9983585eb40fcfe6fd49fbb6a45815663ec33b30a6c6c7de3683b81565b60405190815260200161026d565b61029d60065481565b6102c76102c2366004611b7f565b610659565b6040516001600160a01b03909116815260200161026d565b6102c76102ed366004611bc7565b61070e565b6102fa610736565b005b6102c761030a366004611b7f565b600a60209081525f93845260408085208252928452828420905282529020546001600160a01b031681565b61029d610343366004611bc7565b5f9081526002602052604090206001015490565b6005546040805161ffff8084168252640100000000840460020b6020830152620100009093049092169082015260600161026d565b6102fa61039a366004611bde565b610785565b6005546103b490640100000000900460020b81565b60405160029190910b815260200161026d565b6102fa6103d5366004611bf9565b6107fc565b6005546103e89061ffff1681565b60405161ffff909116815260200161026d565b6102c77f000000000000000000000000000000000000000000000000000000000000000081565b6102c7610430366004611c6c565b610825565b6102fa610443366004611bf9565b610884565b6102fa610456366004611bde565b610907565b6102fa610995565b600b5461029d565b6005546103e89062010000900461ffff1681565b6102fa6109f3565b6102fa610495366004611ccd565b610a60565b6102fa610ae2565b6102fa6104b0366004611ccd565b610b5c565b5f546001600160a01b03166102c7565b6102c76104d3366004611cee565b610bec565b6102616104e6366004611bf9565b610c0a565b61029d5f81565b61029d7fb73ce166ead2f8e9add217713a7989e4edfba9625f71dfd2516204bb67ad344281565b61029d610527366004611bc7565b610c34565b6007546102c7906001600160a01b031681565b6102fa61054d366004611bf9565b610c4a565b6008546102c7906001600160a01b031681565b6102c7610573366004611d0e565b610c6e565b6102c7610586366004611d0e565b600960209081525f92835260408084209091529082529020546001600160a01b031681565b6102c76105b9366004611d3a565b610d1f565b61029d7ff69db34c8965f8ad6ac403f2e0c86f093f37387f402e68b36f490da43b7f890081565b6001546001600160a01b03166102c7565b610261610604366004611bf9565b610df6565b6102fa610617366004611dc3565b610e2c565b6102fa61062a366004611bde565b610ec6565b5f6001600160e01b03198216635a05180f60e01b1480610653575061065382610f35565b92915050565b604080516001600160a01b0380861660208301528085169282019290925290821660608201525f907f00000000000000000000000000000000000000000000000000000000000000009060800160408051601f198184030181529082905280516020918201206106ee939290917ff69db34c8965f8ad6ac403f2e0c86f093f37387f402e68b36f490da43b7f89009101611de3565b60408051601f198184030181529190528051602090910120949350505050565b600b818154811061071d575f80fd5b5f918252602090912001546001600160a01b0316905081565b61073e610f69565b6006545f0361074b575f80fd5b5f6006556040514281527fa2492902a0a1d28dc73e6ab22e473239ef077bb7bc8174dc7dab9fc0818e7135906020015b60405180910390a1565b61078d610f69565b6007546001600160a01b03908116908216036107a7575f80fd5b600780546001600160a01b0319166001600160a01b0383169081179091556040519081527f5e38e259ec1f8a38b98fc65a27e266bb9cc87c76eb8c96c957450d1cff4591ef906020015b60405180910390a150565b5f8281526002602052604090206001015461081681610fc4565b6108208383610fce565b505050565b5f61082e610fef565b6108705f33878787878080601f0160208091040260200160405190810160405280939291908181526020018383808284375f9201919091525061104892505050565b905061087c6001600455565b949350505050565b6001600160a01b03811633146108f95760405162461bcd60e51b815260206004820152602f60248201527f416363657373436f6e74726f6c3a2063616e206f6e6c792072656e6f756e636560448201526e103937b632b9903337b91039b2b63360891b60648201526084015b60405180910390fd5b61090382826115e4565b5050565b61090f610f69565b6008546001600160a01b0390811690821603610929575f80fd5b6001600160a01b0381166109475760055461ffff1615610947575f80fd5b600880546001600160a01b0319166001600160a01b0383169081179091556040519081527fa006ea05a14783821b0248e75d2342cd1681b07509e10a0f08487b080c29dea8906020016107f1565b61099d610f69565b600654156109a9575f80fd5b4260068190557fcd60f5d54996130c21c3f063279b39230bcbafc12f763a1ac1dfaec2e9b61d29906109de6201518082611e2f565b6040805192835260208301919091520161077b565b6109fb610f69565b6006545f03610a08575f80fd5b6201518060065442610a1a9190611e42565b1015610a24575f80fd5b5f600655610a30611605565b6040514281527fa24203c457ce43a097fa0c491fc9cf5e0a893af87a5e0a9785f29491deb11e239060200161077b565b610a68610f69565b61c35061ffff82161115610a7a575f80fd5b60055461ffff808316620100009092041603610a94575f80fd5b6005805463ffff000019166201000061ffff8416908102919091179091556040519081527fddc0c6f0b581e0d51bfe90ff138e4a548f94515c4dbcb12f5e98fdf0f7503983906020016107f1565b60015433906001600160a01b03168114610b505760405162461bcd60e51b815260206004820152602960248201527f4f776e61626c6532537465703a2063616c6c6572206973206e6f7420746865206044820152683732bb9037bbb732b960b91b60648201526084016108f0565b610b5981611612565b50565b610b64610f69565b6103e861ffff82161115610b76575f80fd5b60055461ffff808316911603610b8a575f80fd5b61ffff811615610ba8576008546001600160a01b0316610ba8575f80fd5b6005805461ffff191661ffff83169081179091556040519081527f6b5c342391f543846fce47a925e7eba910f7bec232b08633308ca93fdd0fdf0d906020016107f1565b5f828152600360205260408120610c03908361165f565b9392505050565b5f9182526002602090815260408084206001600160a01b0393909316845291905290205460ff1690565b5f8181526003602052604081206106539061166a565b5f82815260026020526040902060010154610c6481610fc4565b61082083836115e4565b5f7f00000000000000000000000000000000000000000000000000000000000000008383604051602001610cb89291906001600160a01b0392831681529116602082015260400190565b60408051601f19818403018152908290528051602091820120610d00939290917ff69db34c8965f8ad6ac403f2e0c86f093f37387f402e68b36f490da43b7f89009101611de3565b60408051601f1981840301815291905280516020909101209392505050565b5f610d28610fef565b610d527fc9cf812513d9983585eb40fcfe6fd49fbb6a45815663ec33b30a6c6c7de3683b33610c0a565b610d9e5760405162461bcd60e51b815260206004820152601960248201527f43616e60742063726561746520637573746f6d20706f6f6c730000000000000060448201526064016108f0565b610de08787878787878080601f0160208091040260200160405190810160405280939291908181526020018383808284375f9201919091525061104892505050565b9050610dec6001600455565b9695505050505050565b5f816001600160a01b0316610e125f546001600160a01b031690565b6001600160a01b03161480610c035750610c038383610c0a565b610e34610f69565b6001600282900b1215610e45575f80fd5b6101f4600282900b1315610e57575f80fd5b6005546401000000009004600290810b9082900b03610e74575f80fd5b6005805466ffffff00000000191664010000000062ffffff841602179055604051600282900b81527f7d7979096f943139ebee59f01c077a0f0766d06c40c86d596f23ed2561547cce906020016107f1565b610ece610f69565b600180546001600160a01b0319166001600160a01b038316908117909155610efd5f546001600160a01b031690565b6001600160a01b03167f38d16b8cac22d99fc7c124b9cd0de2d3fa1faef420bfe791d8c362d765e2270060405160405180910390a350565b5f6001600160e01b03198216637965db0b60e01b148061065357506301ffc9a760e01b6001600160e01b0319831614610653565b5f546001600160a01b03163314610fc25760405162461bcd60e51b815260206004820181905260248201527f4f776e61626c653a2063616c6c6572206973206e6f7420746865206f776e657260448201526064016108f0565b565b610b598133611673565b610fd882826116cc565b5f8281526003602052604090206108209082611751565b6002600454036110415760405162461bcd60e51b815260206004820152601f60248201527f5265656e7472616e637947756172643a207265656e7472616e742063616c6c0060448201526064016108f0565b6002600455565b5f826001600160a01b0316846001600160a01b031603611066575f80fd5b5f80846001600160a01b0316866001600160a01b03161061108857848661108b565b85855b90925090506001600160a01b0382166110a2575f80fd5b5f6001600160a01b038916156110ce576001600160a01b0389165f908152600a602052604090206110d1565b60095b6001600160a01b038481165f9081526020838152604080832087851684529091529020549192501615611102575f80fd5b5f6001600160a01b038a166111ab576007546001600160a01b0316156111a6576007546001600160a01b0316631d0338d961113d8686610c6e565b8b5f88888c6040518763ffffffff1660e01b815260040161116396959493929190611ea2565b6020604051808303815f875af115801561117f573d5f803e3d5ffd5b505050506040513d601f19601f820116820180604052508101906111a39190611ef1565b90505b611225565b33631d0338d96111bc8c8787610659565b8b8d88888c6040518763ffffffff1660e01b81526004016111e296959493929190611ea2565b6020604051808303815f875af11580156111fe573d5f803e3d5ffd5b505050506040513d601f19601f820116820180604052508101906112229190611ef1565b90505b604051637ec15b9d60e11b81526001600160a01b038281166004830152858116602483015284811660448301528b811660648301527f0000000000000000000000000000000000000000000000000000000000000000169063fd82b73a906084016020604051808303815f875af11580156112a2573d5f803e3d5ffd5b505050506040513d601f19601f820116820180604052508101906112c69190611ef1565b94506001600160a01b038a16611357576007546001600160a01b03161561135257600754604051638d5ef8d160e01b81526001600160a01b03838116600483015287811660248301528c8116604483015290911690638d5ef8d1906064015f604051808303815f87803b15801561133b575f80fd5b505af115801561134d573d5f803e3d5ffd5b505050505b6113bc565b604051638d5ef8d160e01b81526001600160a01b03808316600483015280871660248301528b1660448201523390638d5ef8d1906064015f604051808303815f87803b1580156113a5575f80fd5b505af11580156113b7573d5f803e3d5ffd5b505050505b6001600160a01b038085165f81815260208581526040808320888616845282528083208054868c166001600160a01b031991821681179092558884528285209585529490925282208054841682179055600b805460018101825592527f0175b7a638427703f0dbe7bb9bbf987a2551717b34e79f33b5b1008d1fa01db990910180549092161790558a16611494576040516001600160a01b03868116825280851691908616907f91ccaa7a278130b65168c3a0c8d3bcae84cf5e43704342bd3ec0b59e59c036db9060200160405180910390a36114dd565b6040516001600160a01b03868116825280851691868216918d16907f8a5f030f5fc13b04a1e4ef7c47177e3d76b0e80e1d9be9843db37caa5b7b9b8f9060200160405180910390a45b6008546001600160a01b0316156115d757600854604051635c50e9e360e11b81526001600160a01b0387811660048301528b811660248301528c81166044830152868116606483015285811660848301525f92169063b8a1d3c69060a4016020604051808303815f875af1158015611557573d5f803e3d5ffd5b505050506040513d601f19601f8201168201806040525081019061157b9190611ef1565b60405163d8544cf360e01b81526001600160a01b0380831660048301529192509087169063d8544cf3906024015f604051808303815f87803b1580156115bf575f80fd5b505af11580156115d1573d5f803e3d5ffd5b50505050505b5050505095945050505050565b6115ee8282611765565b5f82815260036020526040902061082090826117cb565b61160d610f69565b610fc25f5b61162c5f6116275f546001600160a01b031690565b6115e4565b611635816117df565b5f546001600160a01b031615610b5957610b595f61165a5f546001600160a01b031690565b610fce565b5f610c0383836117f8565b5f610653825490565b61167d8282610c0a565b6109035761168a8161181e565b611695836020611830565b6040516020016116a6929190611f0c565b60408051601f198184030181529082905262461bcd60e51b82526108f091600401611f80565b6116d68282610c0a565b610903575f8281526002602090815260408083206001600160a01b03851684529091529020805460ff1916600117905561170d3390565b6001600160a01b0316816001600160a01b0316837f2f8788117e7eff1d82e926ec794901d17c78024a50270940304540a733656f0d60405160405180910390a45050565b5f610c03836001600160a01b0384166119c6565b61176f8282610c0a565b15610903575f8281526002602090815260408083206001600160a01b0385168085529252808320805460ff1916905551339285917ff6391f5c32d9c69d2a47ea670b442974b53935d1edc7fd64eb21e047a839171b9190a45050565b5f610c03836001600160a01b038416611a12565b600180546001600160a01b0319169055610b5981611af5565b5f825f01828154811061180d5761180d611f92565b905f5260205f200154905092915050565b60606106536001600160a01b03831660145b60605f61183e836002611fa6565b611849906002611e2f565b67ffffffffffffffff81111561186157611861611fbd565b6040519080825280601f01601f19166020018201604052801561188b576020820181803683370190505b509050600360fc1b815f815181106118a5576118a5611f92565b60200101906001600160f81b03191690815f1a905350600f60fb1b816001815181106118d3576118d3611f92565b60200101906001600160f81b03191690815f1a9053505f6118f5846002611fa6565b611900906001611e2f565b90505b6001811115611977576f181899199a1a9b1b9c1cb0b131b232b360811b85600f166010811061193457611934611f92565b1a60f81b82828151811061194a5761194a611f92565b60200101906001600160f81b03191690815f1a90535060049490941c9361197081611fd1565b9050611903565b508315610c035760405162461bcd60e51b815260206004820181905260248201527f537472696e67733a20686578206c656e67746820696e73756666696369656e7460448201526064016108f0565b5f818152600183016020526040812054611a0b57508154600181810184555f848152602080822090930184905584548482528286019093526040902091909155610653565b505f610653565b5f8181526001830160205260408120548015611aec575f611a34600183611e42565b85549091505f90611a4790600190611e42565b9050818114611aa6575f865f018281548110611a6557611a65611f92565b905f5260205f200154905080875f018481548110611a8557611a85611f92565b5f918252602080832090910192909255918252600188019052604090208390555b8554869080611ab757611ab7611fe6565b600190038181905f5260205f20015f90559055856001015f8681526020019081526020015f205f905560019350505050610653565b5f915050610653565b5f80546001600160a01b038381166001600160a01b0319831681178455604051919092169283917f8be0079c531659141344cd1fd0a4f28419497f9722a3daafe3b4186f6b6457e09190a35050565b5f60208284031215611b54575f80fd5b81356001600160e01b031981168114610c03575f80fd5b6001600160a01b0381168114610b59575f80fd5b5f805f60608486031215611b91575f80fd5b8335611b9c81611b6b565b92506020840135611bac81611b6b565b91506040840135611bbc81611b6b565b809150509250925092565b5f60208284031215611bd7575f80fd5b5035919050565b5f60208284031215611bee575f80fd5b8135610c0381611b6b565b5f8060408385031215611c0a575f80fd5b823591506020830135611c1c81611b6b565b809150509250929050565b5f8083601f840112611c37575f80fd5b50813567ffffffffffffffff811115611c4e575f80fd5b602083019150836020828501011115611c65575f80fd5b9250929050565b5f805f8060608587031215611c7f575f80fd5b8435611c8a81611b6b565b93506020850135611c9a81611b6b565b9250604085013567ffffffffffffffff811115611cb5575f80fd5b611cc187828801611c27565b95989497509550505050565b5f60208284031215611cdd575f80fd5b813561ffff81168114610c03575f80fd5b5f8060408385031215611cff575f80fd5b50508035926020909101359150565b5f8060408385031215611d1f575f80fd5b8235611d2a81611b6b565b91506020830135611c1c81611b6b565b5f805f805f8060a08789031215611d4f575f80fd5b8635611d5a81611b6b565b95506020870135611d6a81611b6b565b94506040870135611d7a81611b6b565b93506060870135611d8a81611b6b565b9250608087013567ffffffffffffffff811115611da5575f80fd5b611db189828a01611c27565b979a9699509497509295939492505050565b5f60208284031215611dd3575f80fd5b81358060020b8114610c03575f80fd5b6001600160f81b0319815260609390931b6bffffffffffffffffffffffff191660018401526015830191909152603582015260550190565b634e487b7160e01b5f52601160045260245ffd5b8082018082111561065357610653611e1b565b8181038181111561065357610653611e1b565b5f5b83811015611e6f578181015183820152602001611e57565b50505f910152565b5f8151808452611e8e816020860160208601611e55565b601f01601f19169290920160200192915050565b6001600160a01b0387811682528681166020830152858116604083015284811660608301528316608082015260c060a082018190525f90611ee590830184611e77565b98975050505050505050565b5f60208284031215611f01575f80fd5b8151610c0381611b6b565b7f416363657373436f6e74726f6c3a206163636f756e742000000000000000000081525f8351611f43816017850160208801611e55565b7001034b99036b4b9b9b4b733903937b6329607d1b6017918401918201528351611f74816028840160208801611e55565b01602801949350505050565b602081525f610c036020830184611e77565b634e487b7160e01b5f52603260045260245ffd5b808202811582820484141761065357610653611e1b565b634e487b7160e01b5f52604160045260245ffd5b5f81611fdf57611fdf611e1b565b505f190190565b634e487b7160e01b5f52603160045260245ffdfea264697066735822122028be7497e714ae783c7191ac162ac5b7bef0f26b375afe924e7def61d5189f2664736f6c63430008140033","linkReferences":{}},"methodIdentifiers":{"CUSTOM_POOL_DEPLOYER()":"07810754","DEFAULT_ADMIN_ROLE()":"a217fddf","POOLS_ADMINISTRATOR_ROLE()":"b500a48b","POOL_INIT_CODE_HASH()":"dc6fd8ab","acceptOwnership()":"79ba5097","allPairs(uint256)":"1e3dd18b","allPairsLength()":"574f2ba3","computeCustomPoolAddress(address,address,address)":"1ba89df4","computePoolAddress(address,address)":"d8ed2241","createCustomPool(address,address,address,address,bytes)":"dbbf3db4","createPool(address,address,bytes)":"321935c6","customPoolByPair(address,address,address)":"23da36cc","defaultCommunityFee()":"2f8a39dd","defaultConfigurationForPool()":"25b355d6","defaultFee()":"5a6c72d0","defaultPluginFactory()":"d0ad2792","defaultTickspacing()":"29bc3446","getRoleAdmin(bytes32)":"248a9ca3","getRoleMember(bytes32,uint256)":"9010d07c","getRoleMemberCount(bytes32)":"ca15c873","grantRole(bytes32,address)":"2f2ff15d","hasRole(bytes32,address)":"91d14854","hasRoleOrOwner(bytes32,address)":"e8ae2b69","owner()":"8da5cb5b","pendingOwner()":"e30c3978","poolByPair(address,address)":"d9a641e1","poolDeployer()":"3119049a","renounceOwnership()":"715018a6","renounceOwnershipStartTimestamp()":"084bfff9","renounceRole(bytes32,address)":"36568abe","revokeRole(bytes32,address)":"d547741f","setDefaultCommunityFee(uint16)":"8d5a8711","setDefaultFee(uint16)":"77326584","setDefaultPluginFactory(address)":"2939dd97","setDefaultTickspacing(int24)":"f09489ac","setVaultFactory(address)":"3ea7fbdb","startRenounceOwnership()":"469388c4","stopRenounceOwnership()":"238a1d74","supportsInterface(bytes4)":"01ffc9a7","transferOwnership(address)":"f2fde38b","vaultFactory()":"d8a06f73"},"id":90}