{"abi":[{"type":"function","name":"burn","inputs":[{"name":"bottomTick","type":"int24","internalType":"int24"},{"name":"topTick","type":"int24","internalType":"int24"},{"name":"amount","type":"uint128","internalType":"uint128"},{"name":"data","type":"bytes","internalType":"bytes"}],"outputs":[{"name":"amount0","type":"uint256","internalType":"uint256"},{"name":"amount1","type":"uint256","internalType":"uint256"}],"stateMutability":"nonpayable"},{"type":"function","name":"collect","inputs":[{"name":"recipient","type":"address","internalType":"address"},{"name":"bottomTick","type":"int24","internalType":"int24"},{"name":"topTick","type":"int24","internalType":"int24"},{"name":"amount0Requested","type":"uint128","internalType":"uint128"},{"name":"amount1Requested","type":"uint128","internalType":"uint128"}],"outputs":[{"name":"amount0","type":"uint128","internalType":"uint128"},{"name":"amount1","type":"uint128","internalType":"uint128"}],"stateMutability":"nonpayable"},{"type":"function","name":"communityVault","inputs":[],"outputs":[{"name":"","type":"address","internalType":"address"}],"stateMutability":"view"},{"type":"function","name":"factory","inputs":[],"outputs":[{"name":"","type":"address","internalType":"address"}],"stateMutability":"view"},{"type":"function","name":"fee","inputs":[],"outputs":[{"name":"currentFee","type":"uint16","internalType":"uint16"}],"stateMutability":"view"},{"type":"function","name":"flash","inputs":[{"name":"recipient","type":"address","internalType":"address"},{"name":"amount0","type":"uint256","internalType":"uint256"},{"name":"amount1","type":"uint256","internalType":"uint256"},{"name":"data","type":"bytes","internalType":"bytes"}],"outputs":[],"stateMutability":"nonpayable"},{"type":"function","name":"getCommunityFeePending","inputs":[],"outputs":[{"name":"","type":"uint128","internalType":"uint128"},{"name":"","type":"uint128","internalType":"uint128"}],"stateMutability":"view"},{"type":"function","name":"getPluginFeePending","inputs":[],"outputs":[{"name":"","type":"uint128","internalType":"uint128"},{"name":"","type":"uint128","internalType":"uint128"}],"stateMutability":"view"},{"type":"function","name":"getReserves","inputs":[],"outputs":[{"name":"","type":"uint128","internalType":"uint128"},{"name":"","type":"uint128","internalType":"uint128"}],"stateMutability":"view"},{"type":"function","name":"globalState","inputs":[],"outputs":[{"name":"price","type":"uint160","internalType":"uint160"},{"name":"tick","type":"int24","internalType":"int24"},{"name":"lastFee","type":"uint16","internalType":"uint16"},{"name":"pluginConfig","type":"uint8","internalType":"uint8"},{"name":"communityFee","type":"uint16","internalType":"uint16"},{"name":"unlocked","type":"bool","internalType":"bool"}],"stateMutability":"view"},{"type":"function","name":"initialize","inputs":[{"name":"initialPrice","type":"uint160","internalType":"uint160"}],"outputs":[],"stateMutability":"nonpayable"},{"type":"function","name":"isUnlocked","inputs":[],"outputs":[{"name":"unlocked","type":"bool","internalType":"bool"}],"stateMutability":"view"},{"type":"function","name":"lastFeeTransferTimestamp","inputs":[],"outputs":[{"name":"","type":"uint32","internalType":"uint32"}],"stateMutability":"view"},{"type":"function","name":"liquidity","inputs":[],"outputs":[{"name":"","type":"uint128","internalType":"uint128"}],"stateMutability":"view"},{"type":"function","name":"maxLiquidityPerTick","inputs":[],"outputs":[{"name":"","type":"uint128","internalType":"uint128"}],"stateMutability":"view"},{"type":"function","name":"mint","inputs":[{"name":"leftoversRecipient","type":"address","internalType":"address"},{"name":"recipient","type":"address","internalType":"address"},{"name":"bottomTick","type":"int24","internalType":"int24"},{"name":"topTick","type":"int24","internalType":"int24"},{"name":"liquidityDesired","type":"uint128","internalType":"uint128"},{"name":"data","type":"bytes","internalType":"bytes"}],"outputs":[{"name":"amount0","type":"uint256","internalType":"uint256"},{"name":"amount1","type":"uint256","internalType":"uint256"},{"name":"liquidityActual","type":"uint128","internalType":"uint128"}],"stateMutability":"nonpayable"},{"type":"function","name":"nextTickGlobal","inputs":[],"outputs":[{"name":"","type":"int24","internalType":"int24"}],"stateMutability":"view"},{"type":"function","name":"plugin","inputs":[],"outputs":[{"name":"","type":"address","internalType":"address"}],"stateMutability":"view"},{"type":"function","name":"positions","inputs":[{"name":"","type":"bytes32","internalType":"bytes32"}],"outputs":[{"name":"liquidity","type":"uint256","internalType":"uint256"},{"name":"innerFeeGrowth0Token","type":"uint256","internalType":"uint256"},{"name":"innerFeeGrowth1Token","type":"uint256","internalType":"uint256"},{"name":"fees0","type":"uint128","internalType":"uint128"},{"name":"fees1","type":"uint128","internalType":"uint128"}],"stateMutability":"view"},{"type":"function","name":"prevTickGlobal","inputs":[],"outputs":[{"name":"","type":"int24","internalType":"int24"}],"stateMutability":"view"},{"type":"function","name":"safelyGetStateOfAMM","inputs":[],"outputs":[{"name":"sqrtPrice","type":"uint160","internalType":"uint160"},{"name":"tick","type":"int24","internalType":"int24"},{"name":"lastFee","type":"uint16","internalType":"uint16"},{"name":"pluginConfig","type":"uint8","internalType":"uint8"},{"name":"activeLiquidity","type":"uint128","internalType":"uint128"},{"name":"nextTick","type":"int24","internalType":"int24"},{"name":"previousTick","type":"int24","internalType":"int24"}],"stateMutability":"view"},{"type":"function","name":"setCommunityFee","inputs":[{"name":"newCommunityFee","type":"uint16","internalType":"uint16"}],"outputs":[],"stateMutability":"nonpayable"},{"type":"function","name":"setCommunityVault","inputs":[{"name":"newCommunityVault","type":"address","internalType":"address"}],"outputs":[],"stateMutability":"nonpayable"},{"type":"function","name":"setFee","inputs":[{"name":"newFee","type":"uint16","internalType":"uint16"}],"outputs":[],"stateMutability":"nonpayable"},{"type":"function","name":"setPlugin","inputs":[{"name":"newPluginAddress","type":"address","internalType":"address"}],"outputs":[],"stateMutability":"nonpayable"},{"type":"function","name":"setPluginConfig","inputs":[{"name":"newConfig","type":"uint8","internalType":"uint8"}],"outputs":[],"stateMutability":"nonpayable"},{"type":"function","name":"setTickSpacing","inputs":[{"name":"newTickSpacing","type":"int24","internalType":"int24"}],"outputs":[],"stateMutability":"nonpayable"},{"type":"function","name":"skim","inputs":[],"outputs":[],"stateMutability":"nonpayable"},{"type":"function","name":"swap","inputs":[{"name":"recipient","type":"address","internalType":"address"},{"name":"zeroToOne","type":"bool","internalType":"bool"},{"name":"amountRequired","type":"int256","internalType":"int256"},{"name":"limitSqrtPrice","type":"uint160","internalType":"uint160"},{"name":"data","type":"bytes","internalType":"bytes"}],"outputs":[{"name":"amount0","type":"int256","internalType":"int256"},{"name":"amount1","type":"int256","internalType":"int256"}],"stateMutability":"nonpayable"},{"type":"function","name":"swapWithPaymentInAdvance","inputs":[{"name":"leftoversRecipient","type":"address","internalType":"address"},{"name":"recipient","type":"address","internalType":"address"},{"name":"zeroToOne","type":"bool","internalType":"bool"},{"name":"amountToSell","type":"int256","internalType":"int256"},{"name":"limitSqrtPrice","type":"uint160","internalType":"uint160"},{"name":"data","type":"bytes","internalType":"bytes"}],"outputs":[{"name":"amount0","type":"int256","internalType":"int256"},{"name":"amount1","type":"int256","internalType":"int256"}],"stateMutability":"nonpayable"},{"type":"function","name":"sync","inputs":[],"outputs":[],"stateMutability":"nonpayable"},{"type":"function","name":"tickSpacing","inputs":[],"outputs":[{"name":"","type":"int24","internalType":"int24"}],"stateMutability":"view"},{"type":"function","name":"tickTable","inputs":[{"name":"","type":"int16","internalType":"int16"}],"outputs":[{"name":"","type":"uint256","internalType":"uint256"}],"stateMutability":"view"},{"type":"function","name":"tickTreeRoot","inputs":[],"outputs":[{"name":"","type":"uint32","internalType":"uint32"}],"stateMutability":"view"},{"type":"function","name":"tickTreeSecondLayer","inputs":[{"name":"","type":"int16","internalType":"int16"}],"outputs":[{"name":"","type":"uint256","internalType":"uint256"}],"stateMutability":"view"},{"type":"function","name":"ticks","inputs":[{"name":"","type":"int24","internalType":"int24"}],"outputs":[{"name":"liquidityTotal","type":"uint256","internalType":"uint256"},{"name":"liquidityDelta","type":"int128","internalType":"int128"},{"name":"prevTick","type":"int24","internalType":"int24"},{"name":"nextTick","type":"int24","internalType":"int24"},{"name":"outerFeeGrowth0Token","type":"uint256","internalType":"uint256"},{"name":"outerFeeGrowth1Token","type":"uint256","internalType":"uint256"}],"stateMutability":"view"},{"type":"function","name":"token0","inputs":[],"outputs":[{"name":"","type":"address","internalType":"address"}],"stateMutability":"view"},{"type":"function","name":"token1","inputs":[],"outputs":[{"name":"","type":"address","internalType":"address"}],"stateMutability":"view"},{"type":"function","name":"totalFeeGrowth0Token","inputs":[],"outputs":[{"name":"","type":"uint256","internalType":"uint256"}],"stateMutability":"view"},{"type":"function","name":"totalFeeGrowth1Token","inputs":[],"outputs":[{"name":"","type":"uint256","internalType":"uint256"}],"stateMutability":"view"},{"type":"event","name":"Burn","inputs":[{"name":"owner","type":"address","indexed":true,"internalType":"address"},{"name":"bottomTick","type":"int24","indexed":true,"internalType":"int24"},{"name":"topTick","type":"int24","indexed":true,"internalType":"int24"},{"name":"liquidityAmount","type":"uint128","indexed":false,"internalType":"uint128"},{"name":"amount0","type":"uint256","indexed":false,"internalType":"uint256"},{"name":"amount1","type":"uint256","indexed":false,"internalType":"uint256"}],"anonymous":false},{"type":"event","name":"BurnFee","inputs":[{"name":"owner","type":"address","indexed":true,"internalType":"address"},{"name":"pluginFee","type":"uint24","indexed":false,"internalType":"uint24"}],"anonymous":false},{"type":"event","name":"Collect","inputs":[{"name":"owner","type":"address","indexed":true,"internalType":"address"},{"name":"recipient","type":"address","indexed":false,"internalType":"address"},{"name":"bottomTick","type":"int24","indexed":true,"internalType":"int24"},{"name":"topTick","type":"int24","indexed":true,"internalType":"int24"},{"name":"amount0","type":"uint128","indexed":false,"internalType":"uint128"},{"name":"amount1","type":"uint128","indexed":false,"internalType":"uint128"}],"anonymous":false},{"type":"event","name":"CommunityFee","inputs":[{"name":"communityFeeNew","type":"uint16","indexed":false,"internalType":"uint16"}],"anonymous":false},{"type":"event","name":"CommunityVault","inputs":[{"name":"newCommunityVault","type":"address","indexed":false,"internalType":"address"}],"anonymous":false},{"type":"event","name":"ExcessTokens","inputs":[{"name":"amount0","type":"uint256","indexed":false,"internalType":"uint256"},{"name":"amount1","type":"uint256","indexed":false,"internalType":"uint256"}],"anonymous":false},{"type":"event","name":"Fee","inputs":[{"name":"fee","type":"uint16","indexed":false,"internalType":"uint16"}],"anonymous":false},{"type":"event","name":"Flash","inputs":[{"name":"sender","type":"address","indexed":true,"internalType":"address"},{"name":"recipient","type":"address","indexed":true,"internalType":"address"},{"name":"amount0","type":"uint256","indexed":false,"internalType":"uint256"},{"name":"amount1","type":"uint256","indexed":false,"internalType":"uint256"},{"name":"paid0","type":"uint256","indexed":false,"internalType":"uint256"},{"name":"paid1","type":"uint256","indexed":false,"internalType":"uint256"}],"anonymous":false},{"type":"event","name":"Initialize","inputs":[{"name":"price","type":"uint160","indexed":false,"internalType":"uint160"},{"name":"tick","type":"int24","indexed":false,"internalType":"int24"}],"anonymous":false},{"type":"event","name":"Mint","inputs":[{"name":"sender","type":"address","indexed":false,"internalType":"address"},{"name":"owner","type":"address","indexed":true,"internalType":"address"},{"name":"bottomTick","type":"int24","indexed":true,"internalType":"int24"},{"name":"topTick","type":"int24","indexed":true,"internalType":"int24"},{"name":"liquidityAmount","type":"uint128","indexed":false,"internalType":"uint128"},{"name":"amount0","type":"uint256","indexed":false,"internalType":"uint256"},{"name":"amount1","type":"uint256","indexed":false,"internalType":"uint256"}],"anonymous":false},{"type":"event","name":"Plugin","inputs":[{"name":"newPluginAddress","type":"address","indexed":false,"internalType":"address"}],"anonymous":false},{"type":"event","name":"PluginConfig","inputs":[{"name":"newPluginConfig","type":"uint8","indexed":false,"internalType":"uint8"}],"anonymous":false},{"type":"event","name":"Skim","inputs":[{"name":"to","type":"address","indexed":true,"internalType":"address"},{"name":"amount0","type":"uint256","indexed":false,"internalType":"uint256"},{"name":"amount1","type":"uint256","indexed":false,"internalType":"uint256"}],"anonymous":false},{"type":"event","name":"Swap","inputs":[{"name":"sender","type":"address","indexed":true,"internalType":"address"},{"name":"recipient","type":"address","indexed":true,"internalType":"address"},{"name":"amount0","type":"int256","indexed":false,"internalType":"int256"},{"name":"amount1","type":"int256","indexed":false,"internalType":"int256"},{"name":"price","type":"uint160","indexed":false,"internalType":"uint160"},{"name":"liquidity","type":"uint128","indexed":false,"internalType":"uint128"},{"name":"tick","type":"int24","indexed":false,"internalType":"int24"}],"anonymous":false},{"type":"event","name":"SwapFee","inputs":[{"name":"sender","type":"address","indexed":true,"internalType":"address"},{"name":"overrideFee","type":"uint24","indexed":false,"internalType":"uint24"},{"name":"pluginFee","type":"uint24","indexed":false,"internalType":"uint24"}],"anonymous":false},{"type":"event","name":"TickSpacing","inputs":[{"name":"newTickSpacing","type":"int24","indexed":false,"internalType":"int24"}],"anonymous":false},{"type":"error","name":"alreadyInitialized","inputs":[]},{"type":"error","name":"arithmeticError","inputs":[]},{"type":"error","name":"bottomTickLowerThanMIN","inputs":[]},{"type":"error","name":"dynamicFeeActive","inputs":[]},{"type":"error","name":"dynamicFeeDisabled","inputs":[]},{"type":"error","name":"flashInsufficientPaid0","inputs":[]},{"type":"error","name":"flashInsufficientPaid1","inputs":[]},{"type":"error","name":"incorrectPluginFee","inputs":[]},{"type":"error","name":"insufficientInputAmount","inputs":[]},{"type":"error","name":"invalidAmountRequired","inputs":[]},{"type":"error","name":"invalidHookResponse","inputs":[{"name":"expectedSelector","type":"bytes4","internalType":"bytes4"}]},{"type":"error","name":"invalidLimitSqrtPrice","inputs":[]},{"type":"error","name":"invalidNewCommunityFee","inputs":[]},{"type":"error","name":"invalidNewTickSpacing","inputs":[]},{"type":"error","name":"liquidityAdd","inputs":[]},{"type":"error","name":"liquidityOverflow","inputs":[]},{"type":"error","name":"liquiditySub","inputs":[]},{"type":"error","name":"locked","inputs":[]},{"type":"error","name":"notAllowed","inputs":[]},{"type":"error","name":"notInitialized","inputs":[]},{"type":"error","name":"pluginIsNotConnected","inputs":[]},{"type":"error","name":"priceOutOfRange","inputs":[]},{"type":"error","name":"tickInvalidLinks","inputs":[]},{"type":"error","name":"tickIsNotInitialized","inputs":[]},{"type":"error","name":"tickIsNotSpaced","inputs":[]},{"type":"error","name":"tickOutOfRange","inputs":[]},{"type":"error","name":"topTickAboveMAX","inputs":[]},{"type":"error","name":"topTickLowerOrEqBottomTick","inputs":[]},{"type":"error","name":"transferFailed","inputs":[]},{"type":"error","name":"zeroAmountRequired","inputs":[]},{"type":"error","name":"zeroLiquidityActual","inputs":[]},{"type":"error","name":"zeroLiquidityDesired","inputs":[]}],"bytecode":{"object":"0x60e060405234801562000010575f80fd5b505f6200001c620000ae565b6001600160a01b0390811660c05290811660a052166080529050620d89e719620000468162000268565b6009805462ffffff93841663010000000265ffffffffffff1990911693909216929092171790556002805460ff60e01b1916600160e01b1790556001600160a01b038116156200009b576200009b8162000123565b50620000a8600362000177565b6200030b565b5f805f80336001600160a01b03166304889e266040518163ffffffff1660e01b8152600401608060405180830381865afa158015620000ef573d5f803e3d5ffd5b505050506040513d601f19601f82011682018060405250810190620001159190620002b1565b935093509350935090919293565b600680546001600160a01b0319166001600160a01b0383169081179091556040519081527f27a3944eff2135a57675f17e72501038982b73620d01f794c72e93d61a3932a29060200160405180910390a150565b620d89e719620001878162000268565b620d89e7195f818152602085905260409020600101805465ffffffffffff60801b1916600160981b62ffffff9485160262ffffff60801b191617600160801b949093169390930291909117909155620001e08162000268565b825f620001f1620d89e71962000268565b60020b60020b81526020019081526020015f206001016010845f620d89e7196200021b9062000268565b60020b815260208101919091526040015f20600101805462ffffff948516600160981b0262ffffff60981b1990911617905581549383166101009190910a90810292021990921617905550565b5f8160020b627fffff1981036200028d57634e487b7160e01b5f52601160045260245ffd5b5f0392915050565b80516001600160a01b0381168114620002ac575f80fd5b919050565b5f805f8060808587031215620002c5575f80fd5b620002d08562000295565b9350620002e06020860162000295565b9250620002f06040860162000295565b9150620003006060860162000295565b905092959194509250565b60805160a05160c0516157cd620003d75f395f818161096601528181610c40015281816111b3015281816114e7015281816118420152818161190801528181611c2f01528181612a5201528181612fb4015281816132950152614bcc01525f81816102ba01528181610ccc01528181611170015281816114a401528181611879015281816118d101528181611be001528181612a0301528181612c35015281816132470152614b9701525f81816108db01528181611dae015281816133a80152613f9c01526157cd5ff3fe608060405234801561000f575f80fd5b506004361061023f575f3560e01c80639e4e022711610135578063d8544cf3116100b4578063ef01df4f11610079578063ef01df4f14610aa2578063f085a61014610ab5578063f30dba9314610ad4578063f637731d14610b6c578063fff6cae914610b91575f80fd5b8063d8544cf314610995578063d8619037146109ba578063ddca3f43146109e5578063e76c01e414610a04578063ecdecf4214610a99575f80fd5b8063c677e3e0116100fa578063c677e3e0146108fd578063cc1f97cf14610928578063d0c93a7c1461094d578063d21220a714610961578063d5c35a7e14610988575f80fd5b80639e4e022714610734578063a1eded87146107cd578063aafe29c0146107e9578063bca57f81146108b7578063c45a0155146108d6575f80fd5b8063514ea4bf116101c157806377f8c3a91161018657806377f8c3a91461065f5780637bd78025146106765780638380edb7146106925780638e005553146106b357806397ce1c51146106d3575f80fd5b8063514ea4bf1461056557806353e97868146105ed578063578b9a36146106005780636378ae441461063057806370cf754a1461064a575f80fd5b80631dd19cb4116102075780631dd19cb4146103d7578063240a875a146103e15780633b3bc70e14610401578063490e6cbc1461048f5780634f1eb3d814610515575f80fd5b8063050a4d21146102435780630902f1ac1461026e5780630dfe1681146102b5578063128acb08146102f85780631a686502146103a1575b5f80fd5b600954610257906301000000900460020b81565b6040805160029290920b8252519081900360200190f35b600c546001600160801b0380821691600160801b9004165b60405180836001600160801b03168152602001826001600160801b031681526020019250505060405180910390f35b6102dc7f000000000000000000000000000000000000000000000000000000000000000081565b604080516001600160a01b039092168252519081900360200190f35b610388600480360360a081101561030d575f80fd5b6001600160a01b0382358116926020810135151592604082013592606083013516919081019060a081016080820135600160201b81111561034c575f80fd5b82018360208201111561035d575f80fd5b803590602001918460018302840111600160201b8311171561037d575f80fd5b509092509050610b99565b6040805192835260208301919091528051918290030190f35b6009546103bb90600160301b90046001600160801b031681565b604080516001600160801b039092168252519081900360200190f35b6103df610d8a565b005b6103df600480360360208110156103f6575f80fd5b503561ffff16610dad565b61038860048036036080811015610416575f80fd5b8135600290810b92602081013590910b916001600160801b036040830135169190810190608081016060820135600160201b811115610453575f80fd5b820183602082011115610464575f80fd5b803590602001918460018302840111600160201b83111715610484575f80fd5b509092509050610e2c565b6103df600480360360808110156104a4575f80fd5b6001600160a01b038235169160208101359160408201359190810190608081016060820135600160201b8111156104d9575f80fd5b8201836020820111156104ea575f80fd5b803590602001918460018302840111600160201b8311171561050a575f80fd5b509092509050611059565b610286600480360360a081101561052a575f80fd5b506001600160a01b03813516906020810135600290810b91604081013590910b906001600160801b03606082013581169160800135166113fa565b6105b66004803603602081101561057a575f80fd5b50600b602052355f90815260409020805460018201546002830154600390930154919290916001600160801b0380821691600160801b90041685565b604080519586526020860194909452848401929092526001600160801b039081166060850152166080830152519081900360a00190f35b6007546102dc906001600160a01b031681565b60095461061790600160c81b900463ffffffff1681565b6040805163ffffffff9092168252519081900360200190f35b6106385f5481565b60408051918252519081900360200190f35b6103bb6d09745258e83de0d0f4e400fce79981565b60045461061790600160d01b900463ffffffff1681565b6004546001600160681b0380821691600160681b900416610286565b600254600160e01b900460ff16604080519115158252519081900360200190f35b6103df600480360360208110156106c8575f80fd5b503561ffff166115b0565b6106db61161b565b604080516001600160a01b039098168852600296870b602089015261ffff9095168786015260ff90931660608701526001600160801b039091166080860152830b60a085015290910b60c0830152519081900360e00190f35b610388600480360360c0811015610749575f80fd5b6001600160a01b0382358116926020810135821692604082013515159260608301359260808101359091169181019060c0810160a0820135600160201b811115610791575f80fd5b8201836020820111156107a2575f80fd5b803590602001918460018302840111600160201b831117156107c2575f80fd5b5090925090506116ad565b6005546001600160681b0380821691600160681b900416610286565b610890600480360360c08110156107fe575f80fd5b6001600160a01b0382358116926020810135909116916040820135600290810b92606081013590910b916001600160801b03608083013516919081019060c0810160a0820135600160201b811115610854575f80fd5b820183602082011115610865575f80fd5b803590602001918460018302840111600160201b83111715610885575f80fd5b509092509050611992565b6040805193845260208401929092526001600160801b031682820152519081900360600190f35b6103df600480360360208110156108cc575f80fd5b503560ff16611d26565b6102dc7f000000000000000000000000000000000000000000000000000000000000000081565b61063860048036036020811015610912575f80fd5b5060086020523560010b5f908152604090205481565b6103df6004803603602081101561093d575f80fd5b50356001600160a01b0316611d79565b60095461025790600160b01b900460020b81565b6102dc7f000000000000000000000000000000000000000000000000000000000000000081565b6009546102579060020b81565b6103df600480360360208110156109aa575f80fd5b50356001600160a01b0316611d9b565b610638600480360360208110156109cf575f80fd5b50600a6020523560010b5f908152604090205481565b6109ed611e15565b6040805161ffff9092168252519081900360200190f35b60028054610a4f916001600160a01b03821691600160a01b810490910b9061ffff600160b81b820481169160ff600160c81b8204811692600160d01b83041691600160e01b90041686565b604080516001600160a01b03909716875260029590950b602087015261ffff9384168686015260ff90921660608601529091166080840152151560a0830152519081900360c00190f35b61063860015481565b6006546102dc906001600160a01b031681565b6103df60048036036020811015610aca575f80fd5b503560020b611eb6565b610b3060048036036020811015610ae9575f80fd5b50600360208190529035600290810b5f90815260409020805460018201548284015492909401549093600f81900b93600160801b8204810b93600160981b909204900b9186565b60408051968752600f9590950b6020870152600293840b868601529190920b6060850152608084019190915260a0830152519081900360c00190f35b6103df60048036036020811015610b81575f80fd5b50356001600160a01b0316611f1e565b6103df612111565b5f805f80610bac8a8a8a8a5f8b8b612133565b91509150610bb86122e1565b604080516060810182525f8082526020808301829052828401829052835180850190945281845283015290610bf084848d8d8d61231a565b6001600160801b03909116604088015260029190910b60208701526001600160a01b039091168552919750955090505f80610c296129ac565b915091508c15610cbf575f871215610c6857610c687f00000000000000000000000000000000000000000000000000000000000000008f895f03612bb2565b610c7488888c8c612bc2565b610c7c612c1e565b610c86898461557a565b1115610ca557604051633ed6d50560e21b815260040160405180910390fd5b610cba8888855f01515f87602001515f612cac565b610d46565b5f881215610cf457610cf47f00000000000000000000000000000000000000000000000000000000000000008f8a5f03612bb2565b610d0088888c8c612bc2565b610d08612f9d565b610d12888361557a565b1115610d3157604051633ed6d50560e21b815260040160405180910390fd5b610d4688885f865f01515f8860200151612cac565b610d618e8989875f0151886040015189602001518c8c612feb565b50505050610d6d61309e565b610d7d8a8a8a8a88888c8c6130b3565b5050965096945050505050565b610d926131bd565b610d9a6122e1565b610da3336131e8565b610dab61309e565b565b610db5613338565b610dbd613362565b6103e861ffff82161180610de0575060025461ffff828116600160d01b90920416145b80610e02575061ffff811615801590610e0257506007546001600160a01b0316155b15610e205760405163a709b9af60e01b815260040160405180910390fd5b610e2981613425565b50565b5f808686610e3a828261347c565b60016001607f1b036001600160801b0388161115610e6b57604051638995290f60e01b815260040160405180910390fd5b5f610e758861558d565b90505f610e86338c8c858c8c6134fe565b9050610e906122e1565b610e986129ac565b50505f610ea6338d8d613650565b9050610eb4818d8d8661367b565b909750955062ffffff821615610f27575f808815610eee57610edf8962ffffff8616620f4240613797565b9150610eeb828a6155b1565b98505b8715610f1657610f078862ffffff8616620f4240613797565b9050610f1381896155b1565b97505b610f245f805f808686612cac565b50505b86861715610f8c576003810154610f489088906001600160801b03166155c4565b6003820154610f68908890600160801b90046001600160801b03166155c4565b6001600160801b039182169116600160801b026001600160801b0319161760038201555b506001600160801b0389168617851715611033576040805162ffffff83168152905133917f1a25098b7a731ae33ed362388b593b876963dfde0efb4db9c0befeed637ff26b919081900360200190a2604080516001600160801b038b16815260208101889052808201879052905160028c810b92908e900b9133917f0c396cd989a39f4459b5fa1aed6a9a8dcdbc45908acfd67e028cd568da98982c919081900360600190a45b61103b61309e565b61104b338c8c858a8a8e8e61382b565b505050509550959350505050565b600254600160c81b90046010161561113a576006546040516346f0547760e11b80825233600483018181526001600160a01b038a81166024860152604485018a90526064850189905260a06084860190815260a4860188905261113a9694959190941693638de0a8ee93928c928c928c928c928c929060c4018484808284375f81840152601f19601f8201169050808301925050509750505050505050506020604051808303815f875af1158015611113573d5f803e3d5ffd5b505050506040513d6020811015611128575f80fd5b50516001600160e01b03191690613934565b6111426122e1565b5f805f8061114e6129ac565b90925090505f881561119657611169896064620f4240613971565b90506111967f00000000000000000000000000000000000000000000000000000000000000008b8b612bb2565b5f88156111d9576111ac896064620f4240613971565b90506111d97f00000000000000000000000000000000000000000000000000000000000000008c8b612bb2565b6111e582828a8a6139eb565b6111ed612c1e565b9550856111fa838661557a565b1115611219576040516336de50ff60e11b815260040160405180910390fd5b611221612f9d565b94508461122e828561557a565b111561124d5760405163c998149f60e01b815260040160405180910390fd5b60025495849003959483900394600160d01b900461ffff1680156112aa575f87156112825761127f88836103e8613797565b90505b5f87156112995761129688846103e8613797565b90505b6112a7828284845f80612cac565b50505b604080518c8152602081018c90528082018990526060810188905290516001600160a01b038e169133917fbdbdb71d7860376ba52b25a5028beea23581364a40522f6bcfb86bb1f2dca6339181900360800190a3505050505061130b61309e565b600254600160c81b9004602016156113f1576113f163343d37ff60e01b60065f9054906101000a90046001600160a01b03166001600160a01b031663343d37ff338b8b8b89898d8d6040518963ffffffff1660e01b815260040180896001600160a01b03168152602001886001600160a01b031681526020018781526020018681526020018581526020018481526020018060200182810382528484828181526020019250808284375f81840152601f19601f82011690508083019250505099505050505050505050506020604051808303815f875af1158015611113573d5f803e3d5ffd5b50505050505050565b5f806114046122e1565b5f611410338888613650565b60038101549091506001600160801b0380821691600160801b9004811690871682101561143b578196505b806001600160801b0316866001600160801b03161115611459578095505b6001600160801b03878717161561159b576001600160801b0387830381168783038216600160801b026001600160801b0319161760038501558795508694508516156114d3576114d37f00000000000000000000000000000000000000000000000000000000000000008b876001600160801b0316612bb2565b6001600160801b03841615611516576115167f00000000000000000000000000000000000000000000000000000000000000008b866001600160801b0316612bb2565b61153a856001600160801b03165f03856001600160801b03165f035f805f80612cac565b604080516001600160a01b038c1681526001600160801b038088166020830152861681830152905160028a810b92908c900b9133917f70935338e69775456a85ddef226c395fb668b63fa0115f5f20610b388e6ca9c0919081900360600190a45b6115a361309e565b5050509550959350505050565b6115b8613362565b600254600160c81b8104608016151590600160e01b900460ff166115ef57604051636798480960e11b815260040160405180910390fd5b801561160e576040516369cdc70760e11b815260040160405180910390fd5b61161782613a14565b5050565b600280546001600160a01b03811691600160a01b8204900b9061ffff600160b81b8204169060ff600160c81b82048116915f9182918291600160e01b909104168061167957604051636798480960e11b815260040160405180910390fd5b505060095495969495939492936001600160801b03600160301b82041693600282810b9450630100000090920490910b9150565b5f805f8612156116d0576040516334cb3a0160e11b815260040160405180910390fd5b6116d86122e1565b5f871561172a575f6116e8612c1e565b90506116f6885f8888612bc2565b5f6116ff612c1e565b905061171361170e83836155b1565b613a64565b9250611723835f805f805f612cac565b505061176c565b5f611733612f9d565b90506117415f898888612bc2565b5f61174a612f9d565b905061175961170e83836155b1565b92506117695f845f805f80612cac565b50505b868114611777578096505b50855f0361179857604051633ed6d50560e21b815260040160405180910390fd5b6117a061309e565b5f806117b28a8a8a8a60018b8b612133565b915091506117be6122e1565b6117c66129ac565b5050604080516060810182525f808252602080830182905282840182905283518085019094528184528301529061180084848d8d8d61231a565b6001600160801b03909116604088015260029190910b60208701526001600160a01b039091168552919750955090508a156118c4575f85121561186a5761186a7f00000000000000000000000000000000000000000000000000000000000000008d875f03612bb2565b858a038a871461189f5761189f7f00000000000000000000000000000000000000000000000000000000000000008f83612bb2565b6118be6118ab82613a64565b5f0387845f01515f86602001515f612cac565b5061194f565b5f8612156118f9576118f97f00000000000000000000000000000000000000000000000000000000000000008d885f03612bb2565b848a038a861461192e5761192e7f00000000000000000000000000000000000000000000000000000000000000008f83612bb2565b61194d8761193b83613a64565b5f035f855f01515f8760200151612cac565b505b61196a8c8787855f0151866040015187602001518a8a612feb565b61197261309e565b6119828c8c8c8c8a8a8e8e6130b3565b5050505097509795505050505050565b5f805f87876119a1828261347c565b876001600160801b03165f036119ca5760405163e6ace6df60e01b815260040160405180910390fd5b6119e98b8b8b6119e28c6001600160801b0316613a76565b8b8b6134fe565b506119f26122e1565b60028054600160a01b810490910b906001600160a01b03165f819003611a2b5760405163812eb65560e01b815260040160405180910390fd5b600954600160b01b9004600290810b9081908d900b81611a4d57611a4d6155eb565b078160020b8e60020b81611a6357611a636155eb565b071760020b15611a8657604051635f6e14f360e01b815260040160405180910390fd5b50611aa58c8c611a9e8d6001600160801b0316613a76565b8585613a87565b5090975095505f9150819050611ab96129ac565b91509150611ac987878b8b613b2f565b8615611ae75781611ad8612c1e565b611ae291906155b1565b611ae9565b5f5b91508515611b095780611afa612f9d565b611b0491906155b1565b611b0b565b5f5b905086821015611b3057611b298a6001600160801b03168389613797565b9450611b34565b8994505b85811015611b73575f611b518b6001600160801b03168389613797565b9050856001600160801b0316816001600160801b03161015611b71578095505b505b846001600160801b03165f03611b9c57604051632fae8a9b60e21b815260040160405180910390fd5b5f611ba88e8e8e613650565b9050611bc7818e8e611bc28a6001600160801b0316613a76565b61367b565b9098509650508615611c1c5786821115611c0d57611c087f00000000000000000000000000000000000000000000000000000000000000008f898503612bb2565b611c1c565b868214611c1c57611c1c6155ff565b8515611c6b5785811115611c5c57611c577f00000000000000000000000000000000000000000000000000000000000000008f888403612bb2565b611c6b565b858114611c6b57611c6b6155ff565b611c7987875f805f80612cac565b8a60020b8c60020b8e6001600160a01b03167f7a53080ba414158be7ec69b987b5fb7d07dee101fe85488f0853ae16239d0bde33898c8c60405180856001600160a01b03168152602001846001600160801b0316815260200183815260200182815260200194505050505060405180910390a4611cf461309e565b611d158d8d8d611d0c896001600160801b0316613a76565b8b8b8f8f61382b565b505050509750975097945050505050565b611d2e613338565b6006546001600160a01b031680611d5857604051639e727ce360e01b815260040160405180910390fd5b336001600160a01b03821614611d7057611d70613362565b61161782613b58565b611d81613338565b611d89613362565b611d925f613b58565b610e2981613ba6565b611da3613338565b336001600160a01b037f00000000000000000000000000000000000000000000000000000000000000001614611ddb57611ddb613362565b6001600160a01b038116158015611dfe5750600254600160d01b900461ffff1615155b15611e0c57611e0c5f613425565b610e2981613bf4565b600254600160b81b810461ffff1690600160c81b900460ff81169060801615611eb25760065f9054906101000a90046001600160a01b03166001600160a01b031663f70d93626040518163ffffffff1660e01b8152600401602060405180830381865afa158015611e88573d5f803e3d5ffd5b505050506040513d601f19601f82011682018060405250810190611eac9190615624565b91505090565b5090565b611ebe613338565b611ec6613362565b5f8160020b131580611edd57506101f4600282900b135b80611ef75750600954600282810b600160b01b909204900b145b15611f1557604051632bf827d160e21b815260040160405180910390fd5b610e2981613c42565b5f611f2882613c92565b6002549091506001600160a01b031615611f5557604051631499a6b760e21b815260040160405180910390fd5b600280546001600160a01b0384166001600160b81b03199091168117600160a01b62ffffff851602178255604080519182529183900b602082015281517f98636036cb66a9c19a37435efc1e90142190214e8abeb821bdba3f2990dd4c95929181900390910190a16006546001600160a01b03161561202b57600654604080516318dbf60160e21b8082523360048301526001600160a01b038681166024840152925161202b9491939091169163636fd80491604480830192602092919082900301815f875af1158015611113573d5f803e3d5ffd5b5f805f612036613f97565b92509250925061204581613a14565b61204e82613c42565b61ffff83161580159061206a57506007546001600160a01b0316155b156120885760405163a709b9af60e01b815260040160405180910390fd5b61209183613425565b600254600160c81b90046040161561210a576006546040805163416eb29160e11b8082523360048301526001600160a01b038981166024840152600289900b6044840152925161210a949193909116916382dd652291606480830192602092919082900301815f875af1158015611113573d5f803e3d5ffd5b5050505050565b6121196131bd565b6121216122e1565b6121296129ac565b5050610dab61309e565b6002545f908190600160c81b900460ff1661215081600116151590565b156122d3576006546001600160a01b03163303612173575f8092509250506122d5565b5f60065f9054906101000a90046001600160a01b03166001600160a01b031663029c1cb7338d8d8d8d8d8d8d6040518963ffffffff1660e01b815260040180896001600160a01b03168152602001886001600160a01b031681526020018715158152602001868152602001856001600160a01b0316815260200184151581526020018060200182810382528484828181526020019250808284375f81840152601f19601f82011690508083019250505099505050505050505050506060604051808303815f875af115801561224a573d5f803e3d5ffd5b505050506040513d606081101561225f575f80fd5b508051602082015160409092015191955090935090506080821615801561229857505f8462ffffff16118061229857505f8362ffffff16115b156122b657604051633a4528ef60e01b815260040160405180910390fd5b6122d16001600160e01b0319821663029c1cb760e01b613934565b505b505b97509795505050505050565b600254600160e01b900460ff1661230b57604051636798480960e11b815260040160405180910390fd5b6002805460ff60e01b19169055565b5f805f805f61233a60405180604001604052805f81526020015f81525090565b875f0361235a576040516301e76e6160e61b815260040160405180910390fd5b600160ff1b880361237e576040516334cb3a0160e11b815260040160405180910390fd5b60408051610160810182525f60208201819052606082018190526080820181905260a0820181905262ffffff8d16610140830152808b1360c08301529181018a9052600954600281810b61012084015263010000008204810b610100840152805461ffff600160d01b820481168552600160b81b82041660e08501526001600160a01b0381169850600160a01b9004900b9550600160301b90046001600160801b03169350908590036124445760405163812eb65560e01b815260040160405180910390fd5b62ffffff8c161561248c576124598b8d61563d565b62ffffff1660e08201819052620f424011612487576040516315b2afa960e01b815260040160405180910390fd5b6124de565b62ffffff8b16156124de578a8160e0018181516124a9919061563d565b62ffffff90811690915260e0830151620f424091161090506124de576040516315b2afa960e01b815260040160405180910390fd5b891561253d57846001600160a01b0316886001600160a01b031610158061251357506401000276a36001600160a01b03891611155b1561253157604051631662672360e01b815260040160405180910390fd5b5f5460808201526125a2565b846001600160a01b0316886001600160a01b031611158061257b575073fffd8963efd1fc6a506488495d951d5263988d266001600160a01b03891610155b1561259957604051631662672360e01b815260040160405180910390fd5b60015460808201525b6125cf6040518060a001604052805f81526020015f81526020015f81526020015f81526020015f81525090565b5f8b6125e0578261012001516125e7565b8261010001515b6001600160a01b038816835290506125fe81614025565b6001600160a01b039081166020840181905261263b918e918a918e16118215151461262d57846020015161262f565b8c5b888f8860e001516142fd565b60808601526060850152604084015260c0840151909750156126935761266a8260800151836040015101613a64565b8b039a5061268961267e8360600151613a64565b6060850151906144c5565b60608401526126cb565b6126a08260600151613a64565b8b019a506126c56126ba8360800151846040015101613a64565b6060850151906144df565b60608401525b82511561270c57825160808301515f916103e8916126e8916144f3565b816126f5576126f56155eb565b608085018051929091049182900390528551018552505b5f83610140015162ffffff1611801561272d57505f8360e0015162ffffff16115b1561276d575f612755836080015185610140015162ffffff168660e0015162ffffff16613797565b60808401805182900390526020860180519091019052505b6001600160801b038516156127a4576127988260800151600160801b876001600160801b0316613797565b60808401805190910190525b8160200151876001600160a01b03160361286a5782602001516127de57600160208401528b6127d4575f546127d8565b6001545b60a08401525b5f8c1561282257608084015160a08501516127fe9160039185919061451b565b50600290810b61010087015283900b6101208601525f19830197505f039050612858565b60a0840151608085015161283b9160039185919061451b565b600290810b61012088015284900b61010087015250919650869190505b6128628682614567565b95505061288c565b81516001600160a01b0388161461288c5761288487613c92565b9550506128b3565b5089158015906128ae5750886001600160a01b0316866001600160a01b031614155b6125cf575b5f8a83604001510390508260c0015115158c1515146128d7578260600151816128de565b8083606001515b600280546001600160b81b031916600160a01b62ffffff8b16026001600160a01b031916176001600160a01b038b161790556020850151919a509850159050612982576101008201516101208301516009805462ffffff92831665ffffffffffff1990911617630100000092909316919091029190911775ffffffffffffffffffffffffffffffff0000000000001916600160301b6001600160801b038716021790555b8a156129945760808201515f5561299d565b60808201516001555b50509550955095509550955095565b5f806129b6612c1e565b6129be612f9d565b90925090506001600160801b038211806129de57506001600160801b0381115b15612a8f576007546001600160a01b03166001600160801b03831115612a3e57612a337f0000000000000000000000000000000000000000000000000000000000000000826002600160801b03198601612bb2565b6001600160801b0392505b6001600160801b03821115612a8d57612a827f0000000000000000000000000000000000000000000000000000000000000000826002600160801b03198501612bb2565b6001600160801b0391505b505b600954600160301b90046001600160801b03165f819003612aaf57509091565b600c546001600160801b0380821691600160801b9004168185118185118180612ad55750805b15612ba9578115612b0c57612b03846001600160801b03168803600160801b876001600160801b0316613797565b5f805490910190555b8015612b3f57612b35836001600160801b03168703600160801b876001600160801b0316613797565b6001805490910190555b604080516001600160801b038087168a0382528516880360208201527fef10ebb00f0dbc72ad4602e94abbbda6f3d40632714f70e9c8fa30d5d44289c9910160405180910390a16001600160801b03808816908716600160801b026001600160801b03191617600c555b50505050509091565b612bbd8383836145e0565b505050565b604051631644ac7b60e11b81523390632c8958f690612beb908790879087908790600401615681565b5f604051808303815f87803b158015612c02575f80fd5b505af1158015612c14573d5f803e3d5ffd5b5050505050505050565b6040516370a0823160e01b81523060048201525f907f00000000000000000000000000000000000000000000000000000000000000006001600160a01b0316906370a08231906024015b602060405180830381865afa158015612c83573d5f803e3d5ffd5b505050506040513d601f19601f82011682018060405250810190612ca791906156a0565b905090565b5f841180612cb957505f83115b80612cc357505f82115b80612ccd57505f81115b15612f115760048054600790600160d01b900463ffffffff165f80808080612cf88c8c888a8c614645565b93509350935093508082175f14612d3d57612d1282613a64565b612d1c908f6156b7565b612d2582613a64565b612d2f908f6156b7565b909e509c5060019450612d8b565b6001600160681b038484171615612d8b57600480546001600160d01b031916600160681b6001600160681b03868116919091026cffffffffffffffffffffffffff1916919091179086161790555b6005975060069650612da68a8a8863ffffffff168a8c614645565b9296509094509250905081811715612e9557612dc182613a64565b612dcb908f6156b7565b612dd482613a64565b612dde908f6156b7565b809e50819f50505060019450612e9063aa6b14bb60e01b60065f9054906101000a90046001600160a01b03166001600160a01b031663aa6b14bb85856040518363ffffffff1660e01b8152600401612e40929190918252602082015260400190565b6020604051808303815f875af1158015612e5c573d5f803e3d5ffd5b505050506040513d601f19601f82011682018060405250810190612e8091906156d6565b6001600160e01b03191690613934565b612ee3565b6001600160681b038484171615612ee357600580546001600160d01b031916600160681b6001600160681b03868116919091026cffffffffffffffffffffffffff1916919091179086161790555b8415612f08576004805463ffffffff60d01b1916600160d01b4263ffffffff16021790555b50505050505050505b85851715612f9557600c546001600160801b0380821691600160801b9004168715612f5457612f48612f4389846156fd565b614749565b6001600160801b031691505b8615612f7357612f67612f4388836156fd565b6001600160801b031690505b6001600160801b039182169116600160801b026001600160801b03191617600c555b505050505050565b6040516370a0823160e01b81523060048201525f907f00000000000000000000000000000000000000000000000000000000000000006001600160a01b0316906370a0823190602401612c68565b6040805162ffffff808516825283166020820152815133927f9443903d84c9719611bd4bba871daaf18a3950d00d5d78b1a2fa701f76df54ff928290030190a260408051888152602081018890526001600160a01b03878116828401526001600160801b0387166060830152600286900b60808301529151918a169133917fc42079f94a6350d7e6235f29174924f928cc2ac818eb64fed8004e115fbcca67919081900360a00190a35050505050505050565b6002805460ff60e01b1916600160e01b179055565b60028054600160c81b90041615612c14576006546001600160a01b03163314612c1457612c14639cb5a96360e01b60065f9054906101000a90046001600160a01b03166001600160a01b0316639cb5a963338c8c8c8c8c8c8c8c6040518a63ffffffff1660e01b8152600401808a6001600160a01b03168152602001896001600160a01b031681526020018815158152602001878152602001866001600160a01b031681526020018581526020018481526020018060200182810382528484828181526020019250808284375f81840152601f19601f8201169050808301925050509a50505050505050505050506020604051808303815f875af1158015611113573d5f803e3d5ffd5b6006546001600160a01b03163314610dab57604051634994c26960e11b815260040160405180910390fd5b5f806131f2612c1e565b6131fa612f9d565b600c5491935091506001600160801b0380821691600160801b9004168184118061322c5750806001600160801b031683115b1561210a57816001600160801b031684111561327f5761327f7f00000000000000000000000000000000000000000000000000000000000000008661327a6001600160801b038616886155b1565b612bb2565b806001600160801b03168311156132c8576132c87f00000000000000000000000000000000000000000000000000000000000000008661327a6001600160801b038516876155b1565b6001600160a01b0385167fb94331e4420f16b156f53c397a8adcd09481283ee7830f7b688b22858e9db80b6133066001600160801b038516876155b1565b6133196001600160801b038516876155b1565b6040805192835260208301919091520160405180910390a25050505050565b600254600160e01b900460ff16610dab57604051636798480960e11b815260040160405180910390fd5b6040805163e8ae2b6960e01b81527fb73ce166ead2f8e9add217713a7989e4edfba9625f71dfd2516204bb67ad3442600482015233602482015290516001600160a01b037f0000000000000000000000000000000000000000000000000000000000000000169163e8ae2b699160448083019260209291908290030181865afa1580156133f1573d5f803e3d5ffd5b505050506040513d6020811015613406575f80fd5b5051610dab57604051634994c26960e11b815260040160405180910390fd5b6002805461ffff60d01b1916600160d01b61ffff8416908102919091179091556040519081527f3647dccc990d4941b0b05b32527ef493a98d6187b20639ca2f9743f3b55ca5e1906020015b60405180910390a150565b613489620d89e719615724565b60020b8160020b13156134af57604051631445443d60e01b815260040160405180910390fd5b8160020b8160020b136134d55760405163d9a841a760e01b815260040160405180910390fd5b620d89e719600283900b121561161757604051631d1ac7f160e21b815260040160405180910390fd5b6002545f90600160c81b900460041615613646576006546001600160a01b0316330361352b57505f613646565b600654604051632f1208d960e11b815233600482018181526001600160a01b038b8116602485015260028b810b60448601528a900b6064850152600f89900b608485015260c060a4850190815260c485018890525f959190911693635e2411b293928d928d928d928d928d928d92919060e4018484808284375f81840152601f19601f8201169050808301925050509850505050505050505060408051808303815f875af11580156135df573d5f803e3d5ffd5b505050506040513d60408110156135f4575f80fd5b50805160209091015192509050620f424062ffffff831610613629576040516315b2afa960e01b815260040160405180910390fd5b6136446001600160e01b03198216632f1208d960e11b613934565b505b9695505050505050565b62ffffff818116908316601885811b91909117901b175f908152600b602052604090205b9392505050565b600280545f8054600154919384936001600160a01b03811693600160a01b90910490910b918491829190600f89900b156136d5576136bf60038c878c86865f61475e565b93506136d260038b878c8686600161475e565b92505b5f806136e660038e8e8a888861484d565b915091506136f68e8c84846148e9565b5050505086600f0b5f1461378a57818061370d5750805b156137255761372589898484875f8d600f0b126149da565b5f6137338a8a8a8789613a87565b91985096509050600f81900b156137885760095461376190600160301b90046001600160801b031689614567565b600960066101000a8154816001600160801b0302191690836001600160801b031602179055505b505b5050505094509492505050565b5f838302815f19858709828110838203039150508084116137b6575f80fd5b805f036137c857508290049050613674565b838587095f8581038616958690049560026003880281188089028203028089028203028089028203028089028203028089028203028089029091030291819003819004600101858411909403939093029190930391909104170290509392505050565b6006546001600160a01b03163314612c1457600254600160c81b900460081615612c1457612c1463d685201060e01b60065f9054906101000a90046001600160a01b03166001600160a01b031663d6852010338c8c8c8c8c8c8c8c6040518a63ffffffff1660e01b8152600401808a6001600160a01b03168152602001896001600160a01b031681526020018860020b81526020018760020b815260200186600f0b81526020018581526020018481526020018060200182810382528484828181526020019250808284375f81840152601f19601f8201169050808301925050509a50505050505050505050506020604051808303815f875af1158015611113573d5f803e3d5ffd5b6001600160e01b0319828116908216146116175760405163d3f5153b60e01b81526001600160e01b03198216600482015260240160405180910390fd5b5f8315806139915750508282028284828161398e5761398e6155eb565b04145b156139b0575f82116139a1575f80fd5b81810490829006151501613674565b6139bb848484613797565b90505f82806139cc576139cc6155eb565b8486091115613674575f1981106139e1575f80fd5b6001019392505050565b604051632982c34f60e21b8152339063a60b0d3c90612beb908790879087908790600401615681565b6002805461ffff60b81b1916600160b81b61ffff8416908102919091179091556040519081527f598b9f043c813aa6be3426ca60d1c65d17256312890be5118dab55b0775ebe2a90602001613471565b805f811215613a71575f80fd5b919050565b805f600f82900b1215613a71575f80fd5b5f805f80613a9489614025565b90505f613aa089614025565b90505f808b60020b8960020b1215613ac457613abd84848c614ac3565b9150613b02565b8a60020b8960020b1215613af457613add88848c614ac3565b9150613aea84898c614aff565b9050899450613b02565b613aff84848c614aff565b90505b5f8a600f0b12613b13578181613b1a565b815f03815f035b909d909c50949a509398505050505050505050565b604051633dd657c560e01b81523390633dd657c590612beb908790879087908790600401615681565b6002805460ff60c81b1916600160c81b60ff8416908102919091179091556040519081527f3a6271b36c1b44bd6a0a0d56230602dc6919b7c17af57254306fadf5fee69dc390602001613471565b600680546001600160a01b0319166001600160a01b0383169081179091556040519081527f27a3944eff2135a57675f17e72501038982b73620d01f794c72e93d61a3932a290602001613471565b600780546001600160a01b0319166001600160a01b0383169081179091556040519081527fb0b573c1f636e1f8bd9b415ba6c04d6dd49100bc25493fc6305b65ec0e581df390602001613471565b6009805462ffffff60b01b1916600160b01b62ffffff841602179055604051600282900b81527f01413b1d5d4c359e9a0daa7909ecda165f6e8c51fe2ff529d74b22a5a7c0264590602001613471565b5f6401000276a36001600160a01b0383161080613ccc575073fffd8963efd1fc6a506488495d951d5263988d266001600160a01b03831610155b15613cea576040516355cf1e2360e01b815260040160405180910390fd5b640100000000600160c01b03602083901b166001600160801b03811160071b81811c67ffffffffffffffff811160061b90811c63ffffffff811160051b90811c61ffff811160041b90811c60ff8111600390811b91821c600f811160021b90811c918211600190811b92831c97908811961790941790921717909117171760808110613d7e57607f810383901c9150613d88565b80607f0383901b91505b908002607f81811c60ff83811c9190911c800280831c81831c1c800280841c81841c1c800280851c81851c1c800280861c81861c1c800280871c81871c1c800280881c81881c1c800280891c81891c1c8002808a1c818a1c1c8002808b1c818b1c1c8002808c1c818c1c1c8002808d1c818d1c1c8002808e1c9c81901c9c909c1c80029c8d901c9e9d607f198f0160401b60c09190911c678000000000000000161760c19b909b1c674000000000000000169a909a1760c29990991c672000000000000000169890981760c39790971c671000000000000000169690961760c49590951c670800000000000000169490941760c59390931c670400000000000000169290921760c69190911c670200000000000000161760c79190911c670100000000000000161760c89190911c6680000000000000161760c99190911c6640000000000000161760ca9190911c6620000000000000161760cb9190911c6610000000000000161760cc9190911c6608000000000000161760cd9190911c66040000000000001617693627a301d71055774c8581026f028f6481ab7f045a5af012a19d003aa9198101608090811d906fdb2df09e81959a81455e260799a0632f8301901d600281810b9083900b14613f8857886001600160a01b0316613f6d82614025565b6001600160a01b03161115613f825781613f8a565b80613f8a565b815b9998505050505050505050565b5f805f7f00000000000000000000000000000000000000000000000000000000000000006001600160a01b03166325b355d66040518163ffffffff1660e01b8152600401606060405180830381865afa158015613ff6573d5f803e3d5ffd5b505050506040513d601f19601f8201168201806040525081019061401a919061573c565b925092509250909192565b5f600282900b60171d62ffffff818401821816620d89e881111561405c57604051633c10250f60e01b815260040160405180910390fd5b600160801b600182161561407d57506ffffcb933bd6fad37aa2d162d1a5940015b600282161561409c576ffff97272373d413259a46990580e213a0260801c5b60048216156140bb576ffff2e50f5f656932ef12357cf3c7fdcc0260801c5b60088216156140da576fffe5caca7e10e4e61c3624eaa0941cd00260801c5b60108216156140f9576fffcb9843d60f6159c9db58835c9266440260801c5b6020821615614118576fff973b41fa98c081472e6896dfb254c00260801c5b6040821615614137576fff2ea16466c96a3843ec78b326b528610260801c5b6080821615614156576ffe5dee046a99a2a811c461f1969c30530260801c5b610100821615614176576ffcbe86c7900a88aedcffc83b479aa3a40260801c5b610200821615614196576ff987a7253ac413176f2b074cf7815e540260801c5b6104008216156141b6576ff3392b0822b70005940c7a398e4b70f30260801c5b6108008216156141d6576fe7159475a2c29b7443b29c7fa6e889d90260801c5b6110008216156141f6576fd097f3bdfd2022b8845ad8f792aa58250260801c5b612000821615614216576fa9f746462d870fdf8a65dc1f90e061e50260801c5b614000821615614236576f70d869a156d2a1b890bb3df62baf32f70260801c5b618000821615614256576f31be135f97d08fd981231505542fcfa60260801c5b62010000821615614277576f09aa508b5b7a84e1c677de54f3e99bc90260801c5b62020000821615614297576e5d6af8dedb81196699c329225ee6040260801c5b6204000082106142dd57620400008216156142c0576d2216e584f5fa1ea926041bedfe980260801c5b620800008216156142dd576b048a170391f7dc42444e8fa20260801c5b5f8560020b13156142ec575f19045b63ffffffff0160201c949350505050565b5f805f8061555e8a61431157614b2c614315565b614b3a5b90505f87126143e7575f61433c8888620f42400362ffffff16620f424062ffffff16613797565b905061434d8a8c8b8563ffffffff16565b945084811061437a57899550614373858862ffffff1689620f42400362ffffff16613971565b92506143c0565b6143868b8a838f614b48565b9550856001600160a01b03168a6001600160a01b0316036143a9576143a96155ff565b6143b8868c8b8563ffffffff16565b945084880392505b6143df868c8b8f6143d357614b606143d7565b614b6d5b63ffffffff16565b9350506144b7565b61555e8b6143f757614b606143fb565b614b6d5b905061440c8a8c8b8463ffffffff16565b9350875f0397505f881215614434576040516334cb3a0160e11b815260040160405180910390fd5b83881061444357899550614488565b61444f8b8a8a8f614b7a565b9550856001600160a01b03168a6001600160a01b03161461447c57614479868c8b8463ffffffff16565b93505b87841115614488578793505b614497868c8b8563ffffffff16565b94506144b3858862ffffff1689620f42400362ffffff16613971565b9250505b509650965096509692505050565b808203828113155f831215146144d9575f80fd5b92915050565b818101828112155f831215146144d9575f80fd5b5f82158061451357505081810281838281614510576145106155eb565b04145b6144d9575f80fd5b600283810b5f9081526020869052604090206003810180548284018054870390558403905560010154600f81900b91600160801b8204810b91600160981b9004900b9450945094915050565b5f8082600f0b12156145a857508082016001600160801b03808416908216106145a3576040516302603ee960e31b815260040160405180910390fd5b6144d9565b826001600160801b03168284019150816001600160801b031610156144d957604051634cba017960e11b815260040160405180910390fd5b5f60405163a9059cbb60e01b5f526001600160a01b0384166004528260245260205f60445f80895af19150813d1560203d1460015f5114161716915080604052508061463f57604051637232c81f60e11b815260040160405180910390fd5b50505050565b5f808080888817156146ee5784546001600160681b038082169160681c1661466d8b8361557a565b91506146798a8261557a565b9050600561468d8a63ffffffff42166155b1565b1015806146a057506001600160681b0382115b806146b157506001600160681b0381115b156146de5787545f806146c5858585614b88565b5f808d559a508a9950909750955061473d945050505050565b90945092505f915081905061473d565b60056147008863ffffffff42166155b1565b106147315784546001600160681b038082169160681c168082171561472e5787545f806146c5858585614b88565b50505b505f9250829150819050805b95509550955095915050565b806001600160801b0381168114613a71575f80fd5b600286900b5f90815260208890526040812080548261477d8289614567565b6001600160801b031690506d09745258e83de0d0f4e400fce7998111156147b7576040516312dc1b2560e11b815260040160405180910390fd5b6001830154600f0b856147db5788600f0b81600f0b6147d691906156fd565b6147ed565b88600f0b81600f0b6147ed91906156b7565b6001850180546001600160801b0319166001600160801b0392909216919091179055818455811594505f83900361483e57841594508960020b8b60020b1361483e5760038401879055600284018890555b50505050979650505050505050565b600285810b5f9081526020889052604080822087840b8084529183209293849391929088900b12156148c2578860020b8760020b1261489d578160020154860393508160030154850392506148ac565b81600201549350816003015492505b6002810154600382015494039390920391610d7d565b81600201548160020154039350816003015481600301540392505050965096945050505050565b8354600f84900b5f0361491157806001600160801b03165f0361490c575061463f565b614927565b61491b8185614567565b6001600160801b031685555b600185015460028601545f85831461495d576001880186905561495a8387036001600160801b038616600160801b613797565b90505b5f85831461498957600289018690556149868387036001600160801b038716600160801b613797565b90505b6001600160801b0382821716156149cf57600389018054600160801b6001600160801b03808316860181166001600160801b031990931683178290048116850116021790555b505050505050505050565b60095463010000008104600290810b919081900b90600160c81b900463ffffffff168282828915614a1b57614a138c898386868c614c01565b919450925090505b8815614a3757614a2f8b898386868c614c01565b919450925090505b8260020b8660020b141580614a5257508160020b8560020b14155b80614a6957508363ffffffff168163ffffffff1614155b15614ab5576009805462ffffff80861663010000000265ffffffffffff1963ffffffff8616600160c81b021665ffffffffffff63ffffffff60c81b011990931692909217908516171790555b505050505050505050505050565b5f8082600f0b1215614ae757614ae061170e8585855f035f614cf0565b5f03614af7565b614af761170e8585856001614cf0565b949350505050565b5f8082600f0b1215614b1c57614ae061170e8585855f035f614d89565b614af761170e8585856001614d89565b5f614af78385846001614d89565b5f614af78484846001614cf0565b5f614b57858585856001614dee565b95945050505050565b5f614af78385845f614cf0565b5f614af78484845f614d89565b5f614b57858585855f614dee565b5f8080808615614bc157614bbd7f00000000000000000000000000000000000000000000000000000000000000008689612bb2565b8691505b8515614bf557614bf27f00000000000000000000000000000000000000000000000000000000000000008688612bb2565b50845b90969095509350505050565b5f805f8315614c48575f80614c1760038c615002565b915091508a60020b8860020b03614c3057819750614c41565b8a60020b8760020b03614c41578096505b5050614ccf565b5f808a60020b8860020b128015614c6457508a60020b8760020b135b15614c8d57508690508560028a810b908c900b1315614c85578a9650614cbf565b8a9750614cbf565b614c9b6008600a8b8e615155565b600281810b5f90815260036020526040902060010154600160801b9004900b925090505b614ccc60038c8484615209565b50505b5f614cde6008600a8a8d6152fe565b969a9599509597509395505050505050565b5f6001600160a01b0385850381169085168110614d0b575f80fd5b600160601b600160e01b03606085901b1683614d5257866001600160a01b0316614d3f8383896001600160a01b0316613797565b81614d4c57614d4c6155eb565b04614d7e565b614d7e614d698383896001600160a01b0316613971565b886001600160a01b0316808204910615150190565b979650505050505050565b5f846001600160a01b0316846001600160a01b03161015614da8575f80fd5b6001600160a01b038585031682614dd657614dd181856001600160801b0316600160601b613797565b613646565b61364681856001600160801b0316600160601b613971565b5f856001600160a01b03165f03614e03575f80fd5b846001600160801b03165f03614e17575f80fd5b835f03614e25575084614b57565b81151583151503614f1f57600160601b600160e01b03606086901b168215614ecf576001600160a01b03871685810290868281614e6457614e646155eb565b0403614e9457818101828110614e9257614e88838a6001600160a01b031683613971565b9350505050614b57565b505b614ec682614ebb888b6001600160a01b03168681614eb457614eb46155eb565b0490615393565b808204910615150190565b92505050614b57565b6001600160a01b03871685810290868281614eec57614eec6155eb565b0414614ef6575f80fd5b808211614f01575f80fd5b614ec6614f1a838a6001600160a01b0316848603613971565b6153a2565b8115614f8c57614f85614f1a6001600160a01b03861115614f5757614f5286600160601b896001600160801b0316613797565b614f75565b6001600160801b038716606087901b81614f7357614f736155eb565b045b6001600160a01b03891690615393565b9050614b57565b5f6001600160a01b03851115614fb957614fb485600160601b886001600160801b0316613971565b614fd6565b614fd6606086901b6001600160801b038816808204910615150190565b905080876001600160a01b031611614fec575f80fd5b6001600160a01b03871603905095945050505050565b600281810b5f8181526020859052604081206001810180548383556001600160b01b03198116909155818501839055600390910191909155600160801b8104830b92600160981b909104900b90620d89e71914806150715750615068620d89e719615724565b60020b8360020b145b156150c957600283900b5f908152602085905260409020600101805462ffffff808516600160801b0262ffffff60801b19918516600160981b029190911665ffffffffffff60801b199092169190911717905561514e565b8060020b8260020b036150ef57604051630d6e094960e01b815260040160405180910390fd5b600282810b5f908152602086905260408082206001908101805462ffffff808816600160981b0262ffffff60981b19909216919091179091559385900b83529120018054918416600160801b0262ffffff60801b199092169190911790555b9250929050565b6001908101905f90600883811d610d8a01901c90829061ffff83161b851663ffffffff16156151b75761518887856153b7565b9094509092509050801561519d575050614af7565b6151ae86610d8b840160010b6153b7565b90945090925090505b806151fa576151d58563ffffffff168360010193508360010b6153e7565b9093509050806151ed5750620d89e89150614af79050565b6151f78684615533565b92505b614d7e87610d89198501615533565b600283900b620d89e71914806152305750615227620d89e719615724565b60020b8360020b145b61463f578260020b8260020b12801561524e57508260020b8160020b135b61526b5760405163e45ac17d60e01b815260040160405180910390fd5b600283810b5f90815260209590955260408086206001908101805465ffffffffffff60801b1916600160981b62ffffff878116820262ffffff60801b1990811693909317600160801b8a831681029190911790945597860b8a52848a208401805462ffffff60981b191698909916908102979097179097559390920b865290942090930180549092169202919091179055565b815f806153398785600881901d600181810b5f9081526020949094526040909320805460ff9093169390931b80831890935591811490151891565b91509150811561538957610d8a01600181810b60081d80820b5f908152602089905260409020805460ff9094169290921b808418909255821591909214818118935014615389576001811b831892505b5050949350505050565b808201828110156144d9575f80fd5b806001600160a01b0381168114613a71575f80fd5b600881901d600181900b5f9081526020849052604081205481906153db90856153e7565b93969095509293505050565b5f8060ff831684811c808303615402578460ff17935061552a565b7f55555555555555555555555555555555555555555555555555555555555555555f8290038216908116156001600160801b0382161560071b1777ffffffffffffffff0000000000000000ffffffffffffffff82161560061b177bffffffff00000000ffffffff00000000ffffffff00000000ffffffff82161560051b177dffff0000ffff0000ffff0000ffff0000ffff0000ffff0000ffff0000ffff82161560041b177eff00ff00ff00ff00ff00ff00ff00ff00ff00ff00ff00ff00ff00ff00ff00ff82161560031b177f0f0f0f0f0f0f0f0f0f0f0f0f0f0f0f0f0f0f0f0f0f0f0f0f0f0f0f0f0f0f0f0f82161560021b177f33333333333333333333333333333333333333333333333333333333333333339091161560011b1760ff1685019350600192505b50509250929050565b600181900b5f90815260208390526040902054600882901b9061555690826153e7565b509392505050565b610dab615783565b634e487b7160e01b5f52601160045260245ffd5b808201808211156144d9576144d9615566565b5f81600f0b60016001607f1b031981036155a9576155a9615566565b5f0392915050565b818103818111156144d9576144d9615566565b6001600160801b038181168382160190808211156155e4576155e4615566565b5092915050565b634e487b7160e01b5f52601260045260245ffd5b634e487b7160e01b5f52600160045260245ffd5b805161ffff81168114613a71575f80fd5b5f60208284031215615634575f80fd5b61367482615613565b62ffffff8181168382160190808211156155e4576155e4615566565b81835281816020850137505f828201602090810191909152601f909101601f19169091010190565b848152836020820152606060408201525f613646606083018486615659565b5f602082840312156156b0575f80fd5b5051919050565b8181035f8312801583831316838312821617156155e4576155e4615566565b5f602082840312156156e6575f80fd5b81516001600160e01b031981168114613674575f80fd5b8082018281125f83128015821682158216171561571c5761571c615566565b505092915050565b5f8160020b627fffff1981036155a9576155a9615566565b5f805f6060848603121561574e575f80fd5b61575784615613565b925060208401518060020b811461576c575f80fd5b915061577a60408501615613565b90509250925092565b634e487b7160e01b5f52605160045260245ffdfea26469706673582212206adc06c0fa75b4d4436e2241850d1e502d609a220aea2ae5030420111028ecc564736f6c63430008140033","linkReferences":{}},"methodIdentifiers":{"burn(int24,int24,uint128,bytes)":"3b3bc70e","collect(address,int24,int24,uint128,uint128)":"4f1eb3d8","communityVault()":"53e97868","factory()":"c45a0155","fee()":"ddca3f43","flash(address,uint256,uint256,bytes)":"490e6cbc","getCommunityFeePending()":"7bd78025","getPluginFeePending()":"a1eded87","getReserves()":"0902f1ac","globalState()":"e76c01e4","initialize(uint160)":"f637731d","isUnlocked()":"8380edb7","lastFeeTransferTimestamp()":"77f8c3a9","liquidity()":"1a686502","maxLiquidityPerTick()":"70cf754a","mint(address,address,int24,int24,uint128,bytes)":"aafe29c0","nextTickGlobal()":"d5c35a7e","plugin()":"ef01df4f","positions(bytes32)":"514ea4bf","prevTickGlobal()":"050a4d21","safelyGetStateOfAMM()":"97ce1c51","setCommunityFee(uint16)":"240a875a","setCommunityVault(address)":"d8544cf3","setFee(uint16)":"8e005553","setPlugin(address)":"cc1f97cf","setPluginConfig(uint8)":"bca57f81","setTickSpacing(int24)":"f085a610","skim()":"1dd19cb4","swap(address,bool,int256,uint160,bytes)":"128acb08","swapWithPaymentInAdvance(address,address,bool,int256,uint160,bytes)":"9e4e0227","sync()":"fff6cae9","tickSpacing()":"d0c93a7c","tickTable(int16)":"c677e3e0","tickTreeRoot()":"578b9a36","tickTreeSecondLayer(int16)":"d8619037","ticks(int24)":"f30dba93","token0()":"0dfe1681","token1()":"d21220a7","totalFeeGrowth0Token()":"6378ae44","totalFeeGrowth1Token()":"ecdecf42"},"id":91}