{"abi":[{"type":"constructor","inputs":[],"stateMutability":"nonpayable"},{"type":"function","name":"allowance","inputs":[{"name":"","type":"address","internalType":"address"},{"name":"","type":"address","internalType":"address"}],"outputs":[{"name":"","type":"uint256","internalType":"uint256"}],"stateMutability":"view"},{"type":"function","name":"approve","inputs":[{"name":"spender","type":"address","internalType":"address"},{"name":"amount","type":"uint256","internalType":"uint256"}],"outputs":[{"name":"","type":"bool","internalType":"bool"}],"stateMutability":"nonpayable"},{"type":"function","name":"balanceOf","inputs":[{"name":"","type":"address","internalType":"address"}],"outputs":[{"name":"","type":"uint256","internalType":"uint256"}],"stateMutability":"view"},{"type":"function","name":"blockTimestampLast","inputs":[],"outputs":[{"name":"","type":"uint256","internalType":"uint256"}],"stateMutability":"view"},{"type":"function","name":"burn","inputs":[{"name":"to","type":"address","internalType":"address"}],"outputs":[{"name":"amount0","type":"uint256","internalType":"uint256"},{"name":"amount1","type":"uint256","internalType":"uint256"}],"stateMutability":"nonpayable"},{"type":"function","name":"claimFees","inputs":[],"outputs":[{"name":"claimed0","type":"uint256","internalType":"uint256"},{"name":"claimed1","type":"uint256","internalType":"uint256"}],"stateMutability":"nonpayable"},{"type":"function","name":"claimable0","inputs":[{"name":"","type":"address","internalType":"address"}],"outputs":[{"name":"","type":"uint256","internalType":"uint256"}],"stateMutability":"view"},{"type":"function","name":"claimable1","inputs":[{"name":"","type":"address","internalType":"address"}],"outputs":[{"name":"","type":"uint256","internalType":"uint256"}],"stateMutability":"view"},{"type":"function","name":"current","inputs":[{"name":"tokenIn","type":"address","internalType":"address"},{"name":"amountIn","type":"uint256","internalType":"uint256"}],"outputs":[{"name":"amountOut","type":"uint256","internalType":"uint256"}],"stateMutability":"view"},{"type":"function","name":"currentCumulativePrices","inputs":[],"outputs":[{"name":"reserve0Cumulative","type":"uint256","internalType":"uint256"},{"name":"reserve1Cumulative","type":"uint256","internalType":"uint256"},{"name":"blockTimestamp","type":"uint256","internalType":"uint256"}],"stateMutability":"view"},{"type":"function","name":"decimals","inputs":[],"outputs":[{"name":"","type":"uint8","internalType":"uint8"}],"stateMutability":"view"},{"type":"function","name":"factory","inputs":[],"outputs":[{"name":"","type":"address","internalType":"address"}],"stateMutability":"view"},{"type":"function","name":"fees","inputs":[],"outputs":[{"name":"","type":"address","internalType":"address"}],"stateMutability":"view"},{"type":"function","name":"getAmountOut","inputs":[{"name":"amountIn","type":"uint256","internalType":"uint256"},{"name":"tokenIn","type":"address","internalType":"address"}],"outputs":[{"name":"","type":"uint256","internalType":"uint256"}],"stateMutability":"view"},{"type":"function","name":"getReserves","inputs":[],"outputs":[{"name":"_reserve0","type":"uint256","internalType":"uint256"},{"name":"_reserve1","type":"uint256","internalType":"uint256"},{"name":"_blockTimestampLast","type":"uint256","internalType":"uint256"}],"stateMutability":"view"},{"type":"function","name":"index0","inputs":[],"outputs":[{"name":"","type":"uint256","internalType":"uint256"}],"stateMutability":"view"},{"type":"function","name":"index1","inputs":[],"outputs":[{"name":"","type":"uint256","internalType":"uint256"}],"stateMutability":"view"},{"type":"function","name":"isStable","inputs":[],"outputs":[{"name":"","type":"bool","internalType":"bool"}],"stateMutability":"view"},{"type":"function","name":"lastObservation","inputs":[],"outputs":[{"name":"","type":"tuple","internalType":"struct Pair.Observation","components":[{"name":"timestamp","type":"uint256","internalType":"uint256"},{"name":"reserve0Cumulative","type":"uint256","internalType":"uint256"},{"name":"reserve1Cumulative","type":"uint256","internalType":"uint256"}]}],"stateMutability":"view"},{"type":"function","name":"metadata","inputs":[],"outputs":[{"name":"dec0","type":"uint256","internalType":"uint256"},{"name":"dec1","type":"uint256","internalType":"uint256"},{"name":"r0","type":"uint256","internalType":"uint256"},{"name":"r1","type":"uint256","internalType":"uint256"},{"name":"st","type":"bool","internalType":"bool"},{"name":"t0","type":"address","internalType":"address"},{"name":"t1","type":"address","internalType":"address"}],"stateMutability":"view"},{"type":"function","name":"mint","inputs":[{"name":"to","type":"address","internalType":"address"}],"outputs":[{"name":"liquidity","type":"uint256","internalType":"uint256"}],"stateMutability":"nonpayable"},{"type":"function","name":"name","inputs":[],"outputs":[{"name":"","type":"string","internalType":"string"}],"stateMutability":"view"},{"type":"function","name":"nonces","inputs":[{"name":"","type":"address","internalType":"address"}],"outputs":[{"name":"","type":"uint256","internalType":"uint256"}],"stateMutability":"view"},{"type":"function","name":"observationLength","inputs":[],"outputs":[{"name":"","type":"uint256","internalType":"uint256"}],"stateMutability":"view"},{"type":"function","name":"observations","inputs":[{"name":"","type":"uint256","internalType":"uint256"}],"outputs":[{"name":"timestamp","type":"uint256","internalType":"uint256"},{"name":"reserve0Cumulative","type":"uint256","internalType":"uint256"},{"name":"reserve1Cumulative","type":"uint256","internalType":"uint256"}],"stateMutability":"view"},{"type":"function","name":"permit","inputs":[{"name":"owner","type":"address","internalType":"address"},{"name":"spender","type":"address","internalType":"address"},{"name":"value","type":"uint256","internalType":"uint256"},{"name":"deadline","type":"uint256","internalType":"uint256"},{"name":"v","type":"uint8","internalType":"uint8"},{"name":"r","type":"bytes32","internalType":"bytes32"},{"name":"s","type":"bytes32","internalType":"bytes32"}],"outputs":[],"stateMutability":"nonpayable"},{"type":"function","name":"prices","inputs":[{"name":"tokenIn","type":"address","internalType":"address"},{"name":"amountIn","type":"uint256","internalType":"uint256"},{"name":"points","type":"uint256","internalType":"uint256"}],"outputs":[{"name":"","type":"uint256[]","internalType":"uint256[]"}],"stateMutability":"view"},{"type":"function","name":"quote","inputs":[{"name":"tokenIn","type":"address","internalType":"address"},{"name":"amountIn","type":"uint256","internalType":"uint256"},{"name":"granularity","type":"uint256","internalType":"uint256"}],"outputs":[{"name":"amountOut","type":"uint256","internalType":"uint256"}],"stateMutability":"view"},{"type":"function","name":"reserve0","inputs":[],"outputs":[{"name":"","type":"uint256","internalType":"uint256"}],"stateMutability":"view"},{"type":"function","name":"reserve0CumulativeLast","inputs":[],"outputs":[{"name":"","type":"uint256","internalType":"uint256"}],"stateMutability":"view"},{"type":"function","name":"reserve1","inputs":[],"outputs":[{"name":"","type":"uint256","internalType":"uint256"}],"stateMutability":"view"},{"type":"function","name":"reserve1CumulativeLast","inputs":[],"outputs":[{"name":"","type":"uint256","internalType":"uint256"}],"stateMutability":"view"},{"type":"function","name":"sample","inputs":[{"name":"tokenIn","type":"address","internalType":"address"},{"name":"amountIn","type":"uint256","internalType":"uint256"},{"name":"points","type":"uint256","internalType":"uint256"},{"name":"window","type":"uint256","internalType":"uint256"}],"outputs":[{"name":"","type":"uint256[]","internalType":"uint256[]"}],"stateMutability":"view"},{"type":"function","name":"skim","inputs":[{"name":"to","type":"address","internalType":"address"}],"outputs":[],"stateMutability":"nonpayable"},{"type":"function","name":"stable","inputs":[],"outputs":[{"name":"","type":"bool","internalType":"bool"}],"stateMutability":"view"},{"type":"function","name":"supplyIndex0","inputs":[{"name":"","type":"address","internalType":"address"}],"outputs":[{"name":"","type":"uint256","internalType":"uint256"}],"stateMutability":"view"},{"type":"function","name":"supplyIndex1","inputs":[{"name":"","type":"address","internalType":"address"}],"outputs":[{"name":"","type":"uint256","internalType":"uint256"}],"stateMutability":"view"},{"type":"function","name":"swap","inputs":[{"name":"amount0Out","type":"uint256","internalType":"uint256"},{"name":"amount1Out","type":"uint256","internalType":"uint256"},{"name":"to","type":"address","internalType":"address"},{"name":"data","type":"bytes","internalType":"bytes"}],"outputs":[],"stateMutability":"nonpayable"},{"type":"function","name":"symbol","inputs":[],"outputs":[{"name":"","type":"string","internalType":"string"}],"stateMutability":"view"},{"type":"function","name":"sync","inputs":[],"outputs":[],"stateMutability":"nonpayable"},{"type":"function","name":"token0","inputs":[],"outputs":[{"name":"","type":"address","internalType":"address"}],"stateMutability":"view"},{"type":"function","name":"token1","inputs":[],"outputs":[{"name":"","type":"address","internalType":"address"}],"stateMutability":"view"},{"type":"function","name":"tokens","inputs":[],"outputs":[{"name":"","type":"address","internalType":"address"},{"name":"","type":"address","internalType":"address"}],"stateMutability":"view"},{"type":"function","name":"totalSupply","inputs":[],"outputs":[{"name":"","type":"uint256","internalType":"uint256"}],"stateMutability":"view"},{"type":"function","name":"transfer","inputs":[{"name":"dst","type":"address","internalType":"address"},{"name":"amount","type":"uint256","internalType":"uint256"}],"outputs":[{"name":"","type":"bool","internalType":"bool"}],"stateMutability":"nonpayable"},{"type":"function","name":"transferFrom","inputs":[{"name":"src","type":"address","internalType":"address"},{"name":"dst","type":"address","internalType":"address"},{"name":"amount","type":"uint256","internalType":"uint256"}],"outputs":[{"name":"","type":"bool","internalType":"bool"}],"stateMutability":"nonpayable"},{"type":"event","name":"Approval","inputs":[{"name":"owner","type":"address","indexed":true,"internalType":"address"},{"name":"spender","type":"address","indexed":true,"internalType":"address"},{"name":"amount","type":"uint256","indexed":false,"internalType":"uint256"}],"anonymous":false},{"type":"event","name":"Burn","inputs":[{"name":"sender","type":"address","indexed":true,"internalType":"address"},{"name":"amount0","type":"uint256","indexed":false,"internalType":"uint256"},{"name":"amount1","type":"uint256","indexed":false,"internalType":"uint256"},{"name":"to","type":"address","indexed":true,"internalType":"address"}],"anonymous":false},{"type":"event","name":"Claim","inputs":[{"name":"sender","type":"address","indexed":true,"internalType":"address"},{"name":"recipient","type":"address","indexed":true,"internalType":"address"},{"name":"amount0","type":"uint256","indexed":false,"internalType":"uint256"},{"name":"amount1","type":"uint256","indexed":false,"internalType":"uint256"}],"anonymous":false},{"type":"event","name":"Fees","inputs":[{"name":"sender","type":"address","indexed":true,"internalType":"address"},{"name":"amount0","type":"uint256","indexed":false,"internalType":"uint256"},{"name":"amount1","type":"uint256","indexed":false,"internalType":"uint256"}],"anonymous":false},{"type":"event","name":"Mint","inputs":[{"name":"sender","type":"address","indexed":true,"internalType":"address"},{"name":"amount0","type":"uint256","indexed":false,"internalType":"uint256"},{"name":"amount1","type":"uint256","indexed":false,"internalType":"uint256"}],"anonymous":false},{"type":"event","name":"Swap","inputs":[{"name":"sender","type":"address","indexed":true,"internalType":"address"},{"name":"amount0In","type":"uint256","indexed":false,"internalType":"uint256"},{"name":"amount1In","type":"uint256","indexed":false,"internalType":"uint256"},{"name":"amount0Out","type":"uint256","indexed":false,"internalType":"uint256"},{"name":"amount1Out","type":"uint256","indexed":false,"internalType":"uint256"},{"name":"to","type":"address","indexed":true,"internalType":"address"}],"anonymous":false},{"type":"event","name":"Sync","inputs":[{"name":"reserve0","type":"uint256","indexed":false,"internalType":"uint256"},{"name":"reserve1","type":"uint256","indexed":false,"internalType":"uint256"}],"anonymous":false},{"type":"event","name":"Transfer","inputs":[{"name":"from","type":"address","indexed":true,"internalType":"address"},{"name":"to","type":"address","indexed":true,"internalType":"address"},{"name":"amount","type":"uint256","indexed":false,"internalType":"uint256"}],"anonymous":false}],"bytecode":{"object":"0x6101606040525f6002555f600c555f600d55600160125534801562000022575f80fd5b50336001600160a01b031663c45a01556040518163ffffffff1660e01b8152600401602060405180830381865afa15801562000060573d5f803e3d5ffd5b505050506040513d601f19601f8201168201806040525081019062000086919062000735565b6001600160a01b0316610100816001600160a01b0316815250505f805f336001600160a01b031663eb13c4cf6040518163ffffffff1660e01b8152600401606060405180830381865afa158015620000e0573d5f803e3d5ffd5b505050506040513d601f19601f8201168201806040525081019062000106919062000758565b8015156080526001600160a01b0380831660c052831660a05260405192955090935091508390839062000139906200070b565b6001600160a01b03928316815291166020820152604001604051809103905ff0801580156200016a573d5f803e3d5ffd5b506001600160a01b031660e05280156200037d57826001600160a01b03166395d89b416040518163ffffffff1660e01b81526004015f60405180830381865afa158015620001ba573d5f803e3d5ffd5b505050506040513d5f823e601f3d908101601f19168201604052620001e39190810190620007de565b826001600160a01b03166395d89b416040518163ffffffff1660e01b81526004015f60405180830381865afa1580156200021f573d5f803e3d5ffd5b505050506040513d5f823e601f3d908101601f19168201604052620002489190810190620007de565b6040516020016200025b92919062000891565b6040516020818303038152906040525f908162000279919062000977565b50826001600160a01b03166395d89b416040518163ffffffff1660e01b81526004015f60405180830381865afa158015620002b6573d5f803e3d5ffd5b505050506040513d5f823e601f3d908101601f19168201604052620002df9190810190620007de565b826001600160a01b03166395d89b416040518163ffffffff1660e01b81526004015f60405180830381865afa1580156200031b573d5f803e3d5ffd5b505050506040513d5f823e601f3d908101601f19168201604052620003449190810190620007de565b6040516020016200035792919062000a3f565b6040516020818303038152906040526001908162000376919062000977565b5062000577565b826001600160a01b03166395d89b416040518163ffffffff1660e01b81526004015f60405180830381865afa158015620003b9573d5f803e3d5ffd5b505050506040513d5f823e601f3d908101601f19168201604052620003e29190810190620007de565b826001600160a01b03166395d89b416040518163ffffffff1660e01b81526004015f60405180830381865afa1580156200041e573d5f803e3d5ffd5b505050506040513d5f823e601f3d908101601f19168201604052620004479190810190620007de565b6040516020016200045a92919062000a8f565b6040516020818303038152906040525f908162000478919062000977565b50826001600160a01b03166395d89b416040518163ffffffff1660e01b81526004015f60405180830381865afa158015620004b5573d5f803e3d5ffd5b505050506040513d5f823e601f3d908101601f19168201604052620004de9190810190620007de565b826001600160a01b03166395d89b416040518163ffffffff1660e01b81526004015f60405180830381865afa1580156200051a573d5f803e3d5ffd5b505050506040513d5f823e601f3d908101601f19168201604052620005439190810190620007de565b6040516020016200055692919062000aeb565b6040516020818303038152906040526001908162000575919062000977565b505b826001600160a01b031663313ce5676040518163ffffffff1660e01b8152600401602060405180830381865afa158015620005b4573d5f803e3d5ffd5b505050506040513d601f19601f82011682018060405250810190620005da919062000b0c565b620005e790600a62000c3d565b6101208181525050816001600160a01b031663313ce5676040518163ffffffff1660e01b8152600401602060405180830381865afa1580156200062c573d5f803e3d5ffd5b505050506040513d601f19601f8201168201806040525081019062000652919062000b0c565b6200065f90600a62000c3d565b610140525050604080516060810182524281525f6020820181815292820181815260068054600181018255925291517ff652222313e28459528d920b65115c16c04f3efc82aaedc97be59f3f377c0d3f60039092029182015591517ff652222313e28459528d920b65115c16c04f3efc82aaedc97be59f3f377c0d40830155517ff652222313e28459528d920b65115c16c04f3efc82aaedc97be59f3f377c0d41909101555062000c4d565b6103438062004b4883390190565b80516001600160a01b038116811462000730575f80fd5b919050565b5f6020828403121562000746575f80fd5b620007518262000719565b9392505050565b5f805f606084860312156200076b575f80fd5b620007768462000719565b9250620007866020850162000719565b9150604084015180151581146200079b575f80fd5b809150509250925092565b634e487b7160e01b5f52604160045260245ffd5b5f5b83811015620007d6578181015183820152602001620007bc565b50505f910152565b5f60208284031215620007ef575f80fd5b81516001600160401b038082111562000806575f80fd5b818401915084601f8301126200081a575f80fd5b8151818111156200082f576200082f620007a6565b604051601f8201601f19908116603f011681019083821181831017156200085a576200085a620007a6565b8160405282815287602084870101111562000873575f80fd5b62000886836020830160208801620007ba565b979650505050505050565b6e029ba30b13632ab189020a6a690169608d1b81525f8351620008bc81600f850160208801620007ba565b602f60f81b600f918401918201528351620008df816010840160208801620007ba565b01601001949350505050565b600181811c908216806200090057607f821691505b6020821081036200091f57634e487b7160e01b5f52602260045260245ffd5b50919050565b601f82111562000972575f81815260208120601f850160051c810160208610156200094d5750805b601f850160051c820191505b818110156200096e5782815560010162000959565b5050505b505050565b81516001600160401b03811115620009935762000993620007a6565b620009ab81620009a48454620008eb565b8462000925565b602080601f831160018114620009e1575f8415620009c95750858301515b5f19600386901b1c1916600185901b1785556200096e565b5f85815260208120601f198616915b8281101562000a1157888601518255948401946001909101908401620009f0565b508582101562000a2f57878501515f19600388901b60f8161c191681555b5050505050600190811b01905550565b6473414d4d2d60d81b81525f835162000a60816005850160208801620007ba565b602f60f81b600591840191820152835162000a83816006840160208801620007ba565b01600601949350505050565b7002b37b630ba34b632ab189020a6a690169607d1b81525f835162000abc816011850160208801620007ba565b602f60f81b601191840191820152835162000adf816012840160208801620007ba565b01601201949350505050565b6476414d4d2d60d81b81525f835162000a60816005850160208801620007ba565b5f6020828403121562000b1d575f80fd5b815160ff8116811462000751575f80fd5b634e487b7160e01b5f52601160045260245ffd5b600181815b8085111562000b8257815f190482111562000b665762000b6662000b2e565b8085161562000b7457918102915b93841c939080029062000b47565b509250929050565b5f8262000b9a5750600162000c37565b8162000ba857505f62000c37565b816001811462000bc1576002811462000bcc5762000bec565b600191505062000c37565b60ff84111562000be05762000be062000b2e565b50506001821b62000c37565b5060208310610133831016604e8410600b841016171562000c11575081810a62000c37565b62000c1d838362000b42565b805f190482111562000c335762000c3362000b2e565b0290505b92915050565b5f6200075160ff84168362000b8a565b60805160a05160c05160e051610100516101205161014051613d2162000e275f395f818161045e0152818161298101528181612c6101528181612d2201528181612e2c015261306f01525f818161043b0152818161294101528181612c2201528181612d6401528181612e06015261302c01525f81816107330152818161082201528181610c78015281816121550152818161248401528181612524015281816126d3015261277301525f818161061c01528181611df001528181612621015261287001525f81816104e801528181610671015281816107630152818161097f01528181610c54015281816114ca015281816118720152818161199901528181611a5d01528181611c9d015281816122c101528181612817015261284f01525f8181610327015281816104c00152818161064c0152818161095e01528181610c3201528181611437015281816117df0152818161196e015281816119d401528181611c7b0152818161223b015281816125c80152818161260001528181612ca201528181612ce901528181612dcd0152612e6f01525f81816102df015281816103c40152818161049001528181610c0a01528181611573015281816115f7015281816121250152818161291a0152612bef0152613d215ff3fe608060405234801561000f575f80fd5b5060043610610281575f3560e01c80637ecebe0011610156578063bda39cad116100ca578063d294f09311610084578063d294f09314610785578063d505accf1461078d578063dd62ed3e146107a0578063ebeb31db146107ca578063f140a35a146107d2578063fff6cae9146107e5575f80fd5b8063bda39cad14610713578063bf944dbc1461071c578063c245febc14610725578063c45a01551461072e578063c5700a0214610755578063d21220a71461075e575f80fd5b80639d63848a1161011b5780639d63848a1461063e5780639e8cc04b1461069c5780639f767c88146106af578063a1ac4d13146106ce578063a9059cbb146106ed578063bc25cf7714610700575f80fd5b80637ecebe001461059e57806389afcb44146105bd5780638a7b8cf2146105e557806395d89b411461060f5780639af1d35a14610617575f80fd5b806323b872dd116101f85780634d5a9f8a116101b25780634d5a9f8a1461051e578063517b3f821461053d5780635881c475146105505780635a76f25e146105635780636a6278421461056c57806370a082311461057f575f80fd5b806323b872dd146103e6578063252c09d7146103f9578063313ce5671461040c57806332c0defd14610426578063392f37e91461042f578063443cb4bc14610515575f80fd5b80630dfe1681116102495780630dfe16811461032257806313345fe11461036157806318160ddd146103815780631df8c71714610398578063205aabf1146103a057806322be3de1146103bf575f80fd5b8063022c0d9f1461028557806306fdde031461029a5780630902f1ac146102b857806309047bdd146102dd578063095ea7b31461030f575b5f80fd5b61029861029336600461378e565b6107ed565b005b6102a2610ec2565b6040516102af919061383e565b60405180910390f35b6007546008546009545b604080519384526020840192909252908201526060016102af565b7f00000000000000000000000000000000000000000000000000000000000000005b60405190151581526020016102af565b6102ff61031d366004613870565b610f4d565b6103497f000000000000000000000000000000000000000000000000000000000000000081565b6040516001600160a01b0390911681526020016102af565b61037461036f36600461389a565b610fb9565b6040516102af91906138d2565b61038a60025481565b6040519081526020016102af565b6102c26111a0565b61038a6103ae366004613915565b600f6020525f908152604090205481565b6102ff7f000000000000000000000000000000000000000000000000000000000000000081565b6102ff6103f4366004613930565b61120d565b6102c261040736600461396e565b6112d2565b610414601281565b60405160ff90911681526020016102af565b61038a600c5481565b600754600854604080517f000000000000000000000000000000000000000000000000000000000000000081527f000000000000000000000000000000000000000000000000000000000000000060208201529081019290925260608201527f0000000000000000000000000000000000000000000000000000000000000000151560808201526001600160a01b037f0000000000000000000000000000000000000000000000000000000000000000811660a08301527f00000000000000000000000000000000000000000000000000000000000000001660c082015260e0016102af565b61038a60075481565b61038a61052c366004613915565b60106020525f908152604090205481565b61038a61054b366004613870565b611303565b61037461055e366004613985565b6113e3565b61038a60085481565b61038a61057a366004613915565b6113f2565b61038a61058d366004613915565b60046020525f908152604090205481565b61038a6105ac366004613915565b60056020525f908152604090205481565b6105d06105cb366004613915565b611799565b604080519283526020830191909152016102af565b6105ed611b35565b60408051825181526020808401519082015291810151908201526060016102af565b6102a2611baf565b6103497f000000000000000000000000000000000000000000000000000000000000000081565b604080516001600160a01b037f0000000000000000000000000000000000000000000000000000000000000000811682527f0000000000000000000000000000000000000000000000000000000000000000166020820152016102af565b61038a6106aa366004613985565b611bbc565b61038a6106bd366004613915565b600e6020525f908152604090205481565b61038a6106dc366004613915565b60116020525f908152604090205481565b6102ff6106fb366004613870565b611c27565b61029861070e366004613915565b611c3c565b61038a600d5481565b61038a600a5481565b61038a600b5481565b6103497f000000000000000000000000000000000000000000000000000000000000000081565b61038a60095481565b6103497f000000000000000000000000000000000000000000000000000000000000000081565b6105d0611d6b565b61029861079b3660046139b7565b611e89565b61038a6107ae366004613a28565b600360209081525f928352604080842090915290825290205481565b60065461038a565b61038a6107e0366004613a5f565b61210a565b6102986121fb565b6012546001146108185760405162461bcd60e51b815260040161080f90613a82565b60405180910390fd5b60026012819055507f00000000000000000000000000000000000000000000000000000000000000006001600160a01b031663b187bd266040518163ffffffff1660e01b8152600401602060405180830381865afa15801561087c573d5f803e3d5ffd5b505050506040513d601f19601f820116820180604052508101906108a09190613aa2565b156108d65760405162461bcd60e51b815260206004820152600660248201526514105554d15160d21b604482015260640161080f565b5f8511806108e357505f84115b6109155760405162461bcd60e51b8152602060048201526003602482015262494f4160e81b604482015260640161080f565b600754600854818710801561092957508086105b61095a5760405162461bcd60e51b8152602060048201526002602482015261125360f21b604482015260640161080f565b5f807f00000000000000000000000000000000000000000000000000000000000000007f00000000000000000000000000000000000000000000000000000000000000006001600160a01b03898116908316148015906109cc5750806001600160a01b0316896001600160a01b031614155b6109fd5760405162461bcd60e51b8152602060048201526002602482015261125560f21b604482015260640161080f565b8a15610a0e57610a0e828a8d612344565b8915610a1f57610a1f818a8c612344565b8615610a8757604051639a7bff7960e01b81526001600160a01b038a1690639a7bff7990610a599033908f908f908e908e90600401613ac1565b5f604051808303815f87803b158015610a70575f80fd5b505af1158015610a82573d5f803e3d5ffd5b505050505b6040516370a0823160e01b81523060048201526001600160a01b038316906370a0823190602401602060405180830381865afa158015610ac9573d5f803e3d5ffd5b505050506040513d601f19601f82011682018060405250810190610aed9190613b0c565b6040516370a0823160e01b81523060048201529094506001600160a01b038216906370a0823190602401602060405180830381865afa158015610b32573d5f803e3d5ffd5b505050506040513d601f19601f82011682018060405250810190610b569190613b0c565b925050505f8985610b679190613b37565b8311610b73575f610b87565b610b7d8a86613b37565b610b879084613b37565b90505f610b948a86613b37565b8311610ba0575f610bb4565b610baa8a86613b37565b610bb49084613b37565b90505f821180610bc357505f81115b610bf55760405162461bcd60e51b815260206004820152600360248201526249494160e81b604482015260640161080f565b60405163cc56b2c560e01b81523060048201527f0000000000000000000000000000000000000000000000000000000000000000151560248201527f0000000000000000000000000000000000000000000000000000000000000000907f0000000000000000000000000000000000000000000000000000000000000000905f907f00000000000000000000000000000000000000000000000000000000000000006001600160a01b03169063cc56b2c590604401602060405180830381865afa158015610cc5573d5f803e3d5ffd5b505050506040513d601f19601f82011682018060405250810190610ce99190613b0c565b90508415610d1057610d10612710610d018388613b4a565b610d0b9190613b61565b612481565b8315610d3557610d35612710610d268387613b4a565b610d309190613b61565b6126d0565b6040516370a0823160e01b81523060048201526001600160a01b038416906370a0823190602401602060405180830381865afa158015610d77573d5f803e3d5ffd5b505050506040513d601f19601f82011682018060405250810190610d9b9190613b0c565b6040516370a0823160e01b81523060048201529097506001600160a01b038316906370a0823190602401602060405180830381865afa158015610de0573d5f803e3d5ffd5b505050506040513d601f19601f82011682018060405250810190610e049190613b0c565b9550610e108989612917565b610e1a8888612917565b1015610e4c5760405162461bcd60e51b81526020600482015260016024820152604b60f81b604482015260640161080f565b505050610e5b84848888612a5e565b60408051838152602081018390529081018c9052606081018b90526001600160a01b038a169033907fd78ad95fa46c994b6551d0da85fc275fe613ce37657fb8d5e3d130840159d8229060800160405180910390a350506001601255505050505050505050565b5f8054610ece90613b80565b80601f0160208091040260200160405190810160405280929190818152602001828054610efa90613b80565b8015610f455780601f10610f1c57610100808354040283529160200191610f45565b820191905f5260205f20905b815481529060010190602001808311610f2857829003601f168201915b505050505081565b335f8181526003602090815260408083206001600160a01b038716808552925280832085905551919290917f8c5be1e5ebec7d5bd14f71427d1e84f3dd0314c0f7b2291e5b200ac8c7c3b92590610fa79086815260200190565b60405180910390a35060015b92915050565b60605f8367ffffffffffffffff811115610fd557610fd5613bb2565b604051908082528060200260200182016040528015610ffe578160200160208202803683370190505b506006549091505f9061101390600190613b37565b90505f6110208587613b4a565b61102a9083613b37565b90505f805b83831015611190576110418784613bc6565b91505f6006848154811061105757611057613bd9565b905f5260205f2090600302015f01546006848154811061107957611079613bd9565b905f5260205f2090600302015f01546110929190613b37565b90505f81600686815481106110a9576110a9613bd9565b905f5260205f20906003020160010154600686815481106110cc576110cc613bd9565b905f5260205f209060030201600101546110e69190613b37565b6110f09190613b61565b90505f826006878154811061110757611107613bd9565b905f5260205f209060030201600201546006878154811061112a5761112a613bd9565b905f5260205f209060030201600201546111449190613b37565b61114e9190613b61565b905061115c8c8e8484612bec565b88858151811061116e5761116e613bd9565b60209081029190910101525050506001016111898784613bc6565b925061102f565b509293505050505b949350505050565b600a54600b54425f80806111bd6007546008546009549192909190565b925092509250838114611205575f6111d58286613b37565b90506111e18185613b4a565b6111eb9088613bc6565b96506111f78184613b4a565b6112019087613bc6565b9550505b505050909192565b6001600160a01b0383165f8181526003602090815260408083203380855292528220549192909190821480159061124557505f198114155b156112b9575f6112558583613b37565b6001600160a01b038881165f818152600360209081526040808320948916808452948252918290208590559051848152939450919290917f8c5be1e5ebec7d5bd14f71427d1e84f3dd0314c0f7b2291e5b200ac8c7c3b925910160405180910390a3505b6112c4868686612edc565b6001925050505b9392505050565b600681815481106112e1575f80fd5b5f91825260209091206003909102018054600182015460029092015490925083565b5f8061130d611b35565b90505f806113196111a0565b5084519193509150420361137e576006805461133790600290613b37565b8154811061134757611347613bd9565b905f5260205f2090600302016040518060600160405290815f82015481526020016001820154815260200160028201548152505092505b82515f9061138c9042613b37565b90505f818560200151856113a09190613b37565b6113aa9190613b61565b90505f828660400151856113be9190613b37565b6113c89190613b61565b90506113d6888a8484612bec565b9998505050505050505050565b60606111988484846001610fb9565b5f6012546001146114155760405162461bcd60e51b815260040161080f90613a82565b60026012556007546008546040516370a0823160e01b81523060048201525f907f00000000000000000000000000000000000000000000000000000000000000006001600160a01b0316906370a0823190602401602060405180830381865afa158015611484573d5f803e3d5ffd5b505050506040513d601f19601f820116820180604052508101906114a89190613b0c565b6040516370a0823160e01b81523060048201529091505f906001600160a01b037f000000000000000000000000000000000000000000000000000000000000000016906370a0823190602401602060405180830381865afa15801561150f573d5f803e3d5ffd5b505050506040513d601f19601f820116820180604052508101906115339190613b0c565b90505f6115408584613b37565b90505f61154d8584613b37565b6002549091505f8190036116c3575f61156e6115698486613b4a565b612f9a565b90505f7f0000000000000000000000000000000000000000000000000000000000000000156115a8576115a18585613008565b90506115ad565b506103e85b8082116115f55760405162461bcd60e51b8152602060048201526016602482015275494e53554646494349454e545f4c495155494449545960501b604482015260640161080f565b7f0000000000000000000000000000000000000000000000000000000000000000156116a6575f826116278388613b4a565b6116319190613b61565b90505f8361163f8488613b4a565b6116499190613b61565b90505f6116568383612917565b116116a35760405162461bcd60e51b815260206004820152601b60248201527f4d494e494d554d5f4c49515549444954595f544f4f5f534d414c4c0000000000604482015260640161080f565b50505b6116b08183613b37565b99506116bc5f826130a9565b50506116f8565b6116f5876116d18386613b4a565b6116db9190613b61565b876116e68486613b4a565b6116f09190613b61565b613139565b97505b5f881161172d5760405162461bcd60e51b8152602060048201526003602482015262494c4d60e81b604482015260640161080f565b61173789896130a9565b61174385858989612a5e565b60408051848152602081018490526001600160a01b038b16917f4c209b5fc8ad50758f13e2e1088ba56a560dff690a1c6fef26394f4c03821c4f910160405180910390a250506001601255509395945050505050565b5f806012546001146117bd5760405162461bcd60e51b815260040161080f90613a82565b60026012556007546008546040516370a0823160e01b81523060048201525f907f00000000000000000000000000000000000000000000000000000000000000006001600160a01b0316906370a0823190602401602060405180830381865afa15801561182c573d5f803e3d5ffd5b505050506040513d601f19601f820116820180604052508101906118509190613b0c565b6040516370a0823160e01b81523060048201529091505f906001600160a01b037f000000000000000000000000000000000000000000000000000000000000000016906370a0823190602401602060405180830381865afa1580156118b7573d5f803e3d5ffd5b505050506040513d601f19601f820116820180604052508101906118db9190613b0c565b305f9081526004602052604090205460025491925090806118fc8584613b4a565b6119069190613b61565b9750806119138484613b4a565b61191d9190613b61565b96505f8811801561192d57505f87115b61195f5760405162461bcd60e51b815260206004820152600360248201526224a62160e91b604482015260640161080f565b611969308361314e565b6119947f00000000000000000000000000000000000000000000000000000000000000008a8a612344565b6119bf7f00000000000000000000000000000000000000000000000000000000000000008a89612344565b6040516370a0823160e01b81523060048201527f00000000000000000000000000000000000000000000000000000000000000006001600160a01b0316906370a0823190602401602060405180830381865afa158015611a21573d5f803e3d5ffd5b505050506040513d601f19601f82011682018060405250810190611a459190613b0c565b6040516370a0823160e01b81523060048201529094507f00000000000000000000000000000000000000000000000000000000000000006001600160a01b0316906370a0823190602401602060405180830381865afa158015611aaa573d5f803e3d5ffd5b505050506040513d601f19601f82011682018060405250810190611ace9190613b0c565b9250611adc84848888612a5e565b60408051898152602081018990526001600160a01b038b169133917fdccd412f0b1252819cb1fd330b93224ca42612892bb3f4f789976e6d81936496910160405180910390a35050505050506001601281905550915091565b611b5660405180606001604052805f81526020015f81526020015f81525090565b60068054611b6690600190613b37565b81548110611b7657611b76613bd9565b905f5260205f2090600302016040518060600160405290815f820154815260200160018201548152602001600282015481525050905090565b60018054610ece90613b80565b5f80611bcb8585856001610fb9565b90505f805b8251811015611c1257828181518110611beb57611beb613bd9565b602002602001015182611bfe9190613bc6565b915080611c0a81613bed565b915050611bd0565b50611c1d8482613b61565b9695505050505050565b5f611c33338484612edc565b50600192915050565b601254600114611c5e5760405162461bcd60e51b815260040161080f90613a82565b60026012556007546040516370a0823160e01b81523060048201527f0000000000000000000000000000000000000000000000000000000000000000917f000000000000000000000000000000000000000000000000000000000000000091611d299184918691906001600160a01b038416906370a08231906024015b602060405180830381865afa158015611cf6573d5f803e3d5ffd5b505050506040513d601f19601f82011682018060405250810190611d1a9190613b0c565b611d249190613b37565b612344565b6008546040516370a0823160e01b8152306004820152611d619183918691906001600160a01b038416906370a0823190602401611cdb565b5050600160125550565b5f80611d76336131d6565b5050335f9081526010602090815260408083205460119092529091205481151580611da057505f81115b15611e8557335f8181526010602090815260408083208390556011909152808220919091555163299e7ae760e11b8152600481019190915260248101839052604481018290526001600160a01b037f0000000000000000000000000000000000000000000000000000000000000000169063533cf5ce906064015f604051808303815f87803b158015611e31575f80fd5b505af1158015611e43573d5f803e3d5ffd5b505060408051858152602081018590523393508392507f865ca08d59f5cb456e85cd2f7ef63664ea4f73327414e9d8152c4158b0e94645910160405180910390a35b9091565b42841015611ebf5760405162461bcd60e51b815260206004820152600360248201526204558560ec1b604482015260640161080f565b5f7f8b73c3c69bb8fe3d512ecc4cf759cc79239f7b179b0ffacaa9a75d522b39400f5f604051611eef9190613c05565b60408051918290038220828201825260018352603160f81b6020938401528151928301939093528101919091527fc89efdaa54c0f20c7adf612882df0950f5a951637e0307cdcb4c672f298b8bc660608201524660808201523060a082015260c00160408051601f1981840301815291815281516020928301206001600160a01b038b165f9081526005909352908220805491935083917f6e71edae12b1b97f4d1f60370fef10105fa2faae0126114a169c64845d6126c9918c918c918c919087611fb983613bed565b909155506040805160208101969096526001600160a01b0394851690860152929091166060840152608083015260a082015260c0810188905260e0016040516020818303038152906040528051906020012060405160200161203292919061190160f01b81526002810192909252602282015260420190565b6040516020818303038152906040528051906020012090505f6120578287878761332e565b9050896001600160a01b0316816001600160a01b0316146120a35760405162461bcd60e51b815260040161080f906020808252600490820152634953494760e01b604082015260600190565b6001600160a01b038a81165f818152600360209081526040808320948e16808452948252918290208c905590518b81527f8c5be1e5ebec7d5bd14f71427d1e84f3dd0314c0f7b2291e5b200ac8c7c3b925910160405180910390a350505050505050505050565b60075460085460405163cc56b2c560e01b81523060048201527f0000000000000000000000000000000000000000000000000000000000000000151560248201525f929190612710907f00000000000000000000000000000000000000000000000000000000000000006001600160a01b03169063cc56b2c590604401602060405180830381865afa1580156121a2573d5f803e3d5ffd5b505050506040513d601f19601f820116820180604052508101906121c69190613b0c565b6121d09087613b4a565b6121da9190613b61565b6121e49086613b37565b94506121f285858484612bec565b95945050505050565b60125460011461221d5760405162461bcd60e51b815260040161080f90613a82565b60026012556040516370a0823160e01b815230600482015261233d907f00000000000000000000000000000000000000000000000000000000000000006001600160a01b0316906370a0823190602401602060405180830381865afa158015612288573d5f803e3d5ffd5b505050506040513d601f19601f820116820180604052508101906122ac9190613b0c565b6040516370a0823160e01b81523060048201527f00000000000000000000000000000000000000000000000000000000000000006001600160a01b0316906370a0823190602401602060405180830381865afa15801561230e573d5f803e3d5ffd5b505050506040513d601f19601f820116820180604052508101906123329190613b0c565b600754600854612a5e565b6001601255565b5f836001600160a01b03163b116123875760405162461bcd60e51b815260206004820152600760248201526621a7a222a622a760c91b604482015260640161080f565b6040516001600160a01b038381166024830152604482018390525f91829186169060640160408051601f198184030181529181526020820180516001600160e01b031663a9059cbb60e01b179052516123e09190613ca1565b5f604051808303815f865af19150503d805f8114612419576040519150601f19603f3d011682016040523d82523d5f602084013e61241e565b606091505b50915091508180156124485750805115806124485750808060200190518101906124489190613aa2565b61247a5760405162461bcd60e51b81526020600482015260036024820152621254d560ea1b604482015260640161080f565b5050505050565b5f7f00000000000000000000000000000000000000000000000000000000000000006001600160a01b0316637be1623e6040518163ffffffff1660e01b8152600401602060405180830381865afa1580156124de573d5f803e3d5ffd5b505050506040513d601f19601f820116820180604052508101906125029190613cbc565b604051632db39b2f60e21b81523060048201529091505f906001600160a01b037f0000000000000000000000000000000000000000000000000000000000000000169063b6ce6cbc90602401602060405180830381865afa158015612569573d5f803e3d5ffd5b505050506040513d601f19601f8201168201806040525081019061258d9190613b0c565b90505f6001600160a01b0383166125a4575f6125bb565b6127106125b18386613b4a565b6125bb9190613b61565b905080156125fb576125ee7f00000000000000000000000000000000000000000000000000000000000000008483612344565b6125f88185613b37565b93505b6126467f00000000000000000000000000000000000000000000000000000000000000007f000000000000000000000000000000000000000000000000000000000000000086612344565b6002545f9061265d86670de0b6b3a7640000613b4a565b6126679190613b61565b905080156126865780600c5f8282546126809190613bc6565b90915550505b337f112c256902bf554b6ed882d2936687aaeb4225e8cd5b51303c90ca6cf43a86026126b28488613bc6565b604080519182525f6020830152015b60405180910390a25050505050565b5f7f00000000000000000000000000000000000000000000000000000000000000006001600160a01b0316637be1623e6040518163ffffffff1660e01b8152600401602060405180830381865afa15801561272d573d5f803e3d5ffd5b505050506040513d601f19601f820116820180604052508101906127519190613cbc565b604051632db39b2f60e21b81523060048201529091505f906001600160a01b037f0000000000000000000000000000000000000000000000000000000000000000169063b6ce6cbc90602401602060405180830381865afa1580156127b8573d5f803e3d5ffd5b505050506040513d601f19601f820116820180604052508101906127dc9190613b0c565b90505f6001600160a01b0383166127f3575f61280a565b6127106128008386613b4a565b61280a9190613b61565b9050801561284a5761283d7f00000000000000000000000000000000000000000000000000000000000000008483612344565b6128478185613b37565b93505b6128957f00000000000000000000000000000000000000000000000000000000000000007f000000000000000000000000000000000000000000000000000000000000000086612344565b6002545f906128ac86670de0b6b3a7640000613b4a565b6128b69190613b61565b905080156128d55780600d5f8282546128cf9190613bc6565b90915550505b337f112c256902bf554b6ed882d2936687aaeb4225e8cd5b51303c90ca6cf43a86025f6129028589613bc6565b604080519283526020830191909152016126c1565b5f7f000000000000000000000000000000000000000000000000000000000000000015612a4d575f7f000000000000000000000000000000000000000000000000000000000000000061297285670de0b6b3a7640000613b4a565b61297c9190613b61565b90505f7f00000000000000000000000000000000000000000000000000000000000000006129b285670de0b6b3a7640000613b4a565b6129bc9190613b61565b90505f670de0b6b3a76400006129d28385613b4a565b6129dc9190613b61565b90505f670de0b6b3a76400006129f28480613b4a565b6129fc9190613b61565b670de0b6b3a7640000612a0f8680613b4a565b612a199190613b61565b612a239190613bc6565b9050670de0b6b3a7640000612a388284613b4a565b612a429190613b61565b945050505050610fb3565b612a578284613b4a565b9050610fb3565b60095442905f90612a6f9083613b37565b90505f81118015612a7f57508315155b8015612a8a57508215155b15612acf57612a998185613b4a565b600a5f828254612aa99190613bc6565b90915550612ab990508184613b4a565b600b5f828254612ac99190613bc6565b90915550505b5f612ad8611b35565b8051909150612ae79084613b37565b9150610708821115612b9b5760408051606081018252848152600a5460208201908152600b54928201928352600680546001810182555f9190915291517ff652222313e28459528d920b65115c16c04f3efc82aaedc97be59f3f377c0d3f600390930292830155517ff652222313e28459528d920b65115c16c04f3efc82aaedc97be59f3f377c0d4082015590517ff652222313e28459528d920b65115c16c04f3efc82aaedc97be59f3f377c0d41909101555b60078790556008869055600983905560408051888152602081018890527fcf2aa50876cdfbb541206f89af0ee78d44a2abf8d328e37fa4917f982149848a910160405180910390a150505050505050565b5f7f000000000000000000000000000000000000000000000000000000000000000015612e6b575f612c1e8484612917565b90507f0000000000000000000000000000000000000000000000000000000000000000612c5385670de0b6b3a7640000613b4a565b612c5d9190613b61565b93507f0000000000000000000000000000000000000000000000000000000000000000612c9284670de0b6b3a7640000613b4a565b612c9c9190613b61565b92505f807f00000000000000000000000000000000000000000000000000000000000000006001600160a01b0316876001600160a01b031614612ce0578486612ce3565b85855b915091507f00000000000000000000000000000000000000000000000000000000000000006001600160a01b0316876001600160a01b031614612d62577f0000000000000000000000000000000000000000000000000000000000000000612d5389670de0b6b3a7640000613b4a565b612d5d9190613b61565b612d9f565b7f0000000000000000000000000000000000000000000000000000000000000000612d9589670de0b6b3a7640000613b4a565b612d9f9190613b61565b97505f612db6612daf848b613bc6565b8584613354565b612dc09083613b37565b9050670de0b6b3a76400007f00000000000000000000000000000000000000000000000000000000000000006001600160a01b0316896001600160a01b031614612e2a577f0000000000000000000000000000000000000000000000000000000000000000612e4c565b7f00000000000000000000000000000000000000000000000000000000000000005b612e569083613b4a565b612e609190613b61565b945050505050611198565b5f807f00000000000000000000000000000000000000000000000000000000000000006001600160a01b0316866001600160a01b031614612ead578385612eb0565b84845b9092509050612ebf8783613bc6565b612ec98289613b4a565b612ed39190613b61565b92505050611198565b612ee5836131d6565b612eee826131d6565b6001600160a01b0383165f9081526004602052604081208054839290612f15908490613b37565b90915550506001600160a01b0382165f9081526004602052604081208054839290612f41908490613bc6565b92505081905550816001600160a01b0316836001600160a01b03167fddf252ad1be2c89b69c2b068fc378daa952ba7f163c4a11628f55a4df523b3ef83604051612f8d91815260200190565b60405180910390a3505050565b5f6003821115612ff95750805f612fb2600283613b61565b612fbd906001613bc6565b90505b81811015612ff357905080600281612fd88186613b61565b612fe29190613bc6565b612fec9190613b61565b9050612fc0565b50919050565b8115613003575060015b919050565b5f806130176115698486613b4a565b90505f61302685612710613b4a565b613050837f0000000000000000000000000000000000000000000000000000000000000000613b4a565b61305a9190613b61565b90505f61306985612710613b4a565b613093847f0000000000000000000000000000000000000000000000000000000000000000613b4a565b61309d9190613b61565b9050611c1d828261345f565b6130b2826131d6565b8060025f8282546130c39190613bc6565b90915550506001600160a01b0382165f90815260046020526040812080548392906130ef908490613bc6565b90915550506040518181526001600160a01b038316905f907fddf252ad1be2c89b69c2b068fc378daa952ba7f163c4a11628f55a4df523b3ef906020015b60405180910390a35050565b5f81831061314757816112cb565b5090919050565b613157826131d6565b8060025f8282546131689190613b37565b90915550506001600160a01b0382165f9081526004602052604081208054839290613194908490613b37565b90915550506040518181525f906001600160a01b038416907fddf252ad1be2c89b69c2b068fc378daa952ba7f163c4a11628f55a4df523b3ef9060200161312d565b6001600160a01b0381165f9081526004602052604090205480156132fd576001600160a01b0382165f908152600e602090815260408083208054600f8085529285208054600c54600d549481905594909552829055936132368584613b37565b90505f6132438584613b37565b9050811561329c575f670de0b6b3a764000061325f848a613b4a565b6132699190613b61565b6001600160a01b038a165f90815260106020526040812080549293508392909190613295908490613bc6565b9091555050505b80156132f3575f670de0b6b3a76400006132b6838a613b4a565b6132c09190613b61565b6001600160a01b038a165f908152601160205260408120805492935083929091906132ec908490613bc6565b9091555050505b5050505050505050565b600c546001600160a01b0383165f908152600e6020908152604080832093909355600d54600f909152919020555050565b5f805f61333d8787878761346e565b9150915061334a8161352b565b5095945050505050565b5f805b60ff81101561345657825f61336c8783613677565b9050858110156133bb575f6133818887613713565b61338b8389613b37565b61339d90670de0b6b3a7640000613b4a565b6133a79190613b61565b90506133b38187613bc6565b9550506133fc565b5f6133c68887613713565b6133d08884613b37565b6133e290670de0b6b3a7640000613b4a565b6133ec9190613b61565b90506133f88187613b37565b9550505b818511156134255760016134108387613b37565b11613420578493505050506112cb565b613441565b60016134318684613b37565b11613441578493505050506112cb565b5050808061344e90613bed565b915050613357565b50909392505050565b5f8183101561314757816112cb565b5f807f7fffffffffffffffffffffffffffffff5d576e7357a4501ddfe92f46681b20a08311156134a357505f90506003613522565b604080515f8082526020820180845289905260ff881692820192909252606081018690526080810185905260019060a0016020604051602081039080840390855afa1580156134f4573d5f803e3d5ffd5b5050604051601f1901519150506001600160a01b03811661351c575f60019250925050613522565b91505f90505b94509492505050565b5f81600481111561353e5761353e613cd7565b036135465750565b600181600481111561355a5761355a613cd7565b036135a75760405162461bcd60e51b815260206004820152601860248201527f45434453413a20696e76616c6964207369676e61747572650000000000000000604482015260640161080f565b60028160048111156135bb576135bb613cd7565b036136085760405162461bcd60e51b815260206004820152601f60248201527f45434453413a20696e76616c6964207369676e6174757265206c656e67746800604482015260640161080f565b600381600481111561361c5761361c613cd7565b036136745760405162461bcd60e51b815260206004820152602260248201527f45434453413a20696e76616c6964207369676e6174757265202773272076616c604482015261756560f01b606482015260840161080f565b50565b5f670de0b6b3a76400008281858161368f8280613b4a565b6136999190613b61565b6136a39190613b4a565b6136ad9190613b61565b6136b79190613b4a565b6136c19190613b61565b670de0b6b3a76400008084816136d78280613b4a565b6136e19190613b61565b6136eb9190613b4a565b6136f59190613b61565b6136ff9086613b4a565b6137099190613b61565b6112cb9190613bc6565b5f670de0b6b3a764000083816137298280613b4a565b6137339190613b61565b61373d9190613b4a565b6137479190613b61565b670de0b6b3a76400008061375b8580613b4a565b6137659190613b61565b613770866003613b4a565b6136ff9190613b4a565b6001600160a01b0381168114613674575f80fd5b5f805f805f608086880312156137a2575f80fd5b853594506020860135935060408601356137bb8161377a565b9250606086013567ffffffffffffffff808211156137d7575f80fd5b818801915088601f8301126137ea575f80fd5b8135818111156137f8575f80fd5b896020828501011115613809575f80fd5b9699959850939650602001949392505050565b5f5b8381101561383657818101518382015260200161381e565b50505f910152565b602081525f825180602084015261385c81604085016020870161381c565b601f01601f19169190910160400192915050565b5f8060408385031215613881575f80fd5b823561388c8161377a565b946020939093013593505050565b5f805f80608085870312156138ad575f80fd5b84356138b88161377a565b966020860135965060408601359560600135945092505050565b602080825282518282018190525f9190848201906040850190845b81811015613909578351835292840192918401916001016138ed565b50909695505050505050565b5f60208284031215613925575f80fd5b81356112cb8161377a565b5f805f60608486031215613942575f80fd5b833561394d8161377a565b9250602084013561395d8161377a565b929592945050506040919091013590565b5f6020828403121561397e575f80fd5b5035919050565b5f805f60608486031215613997575f80fd5b83356139a28161377a565b95602085013595506040909401359392505050565b5f805f805f805f60e0888a0312156139cd575f80fd5b87356139d88161377a565b965060208801356139e88161377a565b95506040880135945060608801359350608088013560ff81168114613a0b575f80fd5b9699959850939692959460a0840135945060c09093013592915050565b5f8060408385031215613a39575f80fd5b8235613a448161377a565b91506020830135613a548161377a565b809150509250929050565b5f8060408385031215613a70575f80fd5b823591506020830135613a548161377a565b6020808252600690820152651313d0d2d15160d21b604082015260600190565b5f60208284031215613ab2575f80fd5b815180151581146112cb575f80fd5b60018060a01b038616815284602082015283604082015260806060820152816080820152818360a08301375f81830160a090810191909152601f909201601f19160101949350505050565b5f60208284031215613b1c575f80fd5b5051919050565b634e487b7160e01b5f52601160045260245ffd5b81810381811115610fb357610fb3613b23565b8082028115828204841417610fb357610fb3613b23565b5f82613b7b57634e487b7160e01b5f52601260045260245ffd5b500490565b600181811c90821680613b9457607f821691505b602082108103612ff357634e487b7160e01b5f52602260045260245ffd5b634e487b7160e01b5f52604160045260245ffd5b80820180821115610fb357610fb3613b23565b634e487b7160e01b5f52603260045260245ffd5b5f60018201613bfe57613bfe613b23565b5060010190565b5f80835481600182811c915080831680613c2057607f831692505b60208084108203613c3f57634e487b7160e01b86526022600452602486fd5b818015613c535760018114613c6857613c93565b60ff1986168952841515850289019650613c93565b5f8a8152602090205f5b86811015613c8b5781548b820152908501908301613c72565b505084890196505b509498975050505050505050565b5f8251613cb281846020870161381c565b9190910192915050565b5f60208284031215613ccc575f80fd5b81516112cb8161377a565b634e487b7160e01b5f52602160045260245ffdfea26469706673582212208d6523240a4eb97d3bcabbc8d14aa6fb374186882d9b44ca51a4d628f7206c0964736f6c6343000814003360e060405234801561000f575f80fd5b5060405161034338038061034383398101604081905261002e91610064565b336080526001600160a01b0391821660a0521660c052610095565b80516001600160a01b038116811461005f575f80fd5b919050565b5f8060408385031215610075575f80fd5b61007e83610049565b915061008c60208401610049565b90509250929050565b60805160a05160c0516102876100bc5f395f60b201525f608101525f604d01526102875ff3fe608060405234801561000f575f80fd5b5060043610610029575f3560e01c8063533cf5ce1461002d575b5f80fd5b61004061003b3660046101c2565b610042565b005b336001600160a01b037f00000000000000000000000000000000000000000000000000000000000000001614610076575f80fd5b81156100a7576100a77f000000000000000000000000000000000000000000000000000000000000000084846100dd565b80156100d8576100d87f000000000000000000000000000000000000000000000000000000000000000084836100dd565b505050565b5f836001600160a01b03163b116100f2575f80fd5b6040516001600160a01b038381166024830152604482018390525f91829186169060640160408051601f198184030181529181526020820180516001600160e01b031663a9059cbb60e01b1790525161014b91906101ff565b5f604051808303815f865af19150503d805f8114610184576040519150601f19603f3d011682016040523d82523d5f602084013e610189565b606091505b50915091508180156101b35750805115806101b35750808060200190518101906101b3919061022b565b6101bb575f80fd5b5050505050565b5f805f606084860312156101d4575f80fd5b83356001600160a01b03811681146101ea575f80fd5b95602085013595506040909401359392505050565b5f82515f5b8181101561021e5760208186018101518583015201610204565b505f920191825250919050565b5f6020828403121561023b575f80fd5b8151801515811461024a575f80fd5b939250505056fea2646970667358221220ffb9017301f36c939b21cf6cb60612eb4e60cebb8ae7bad1e433045a03f945ef64736f6c63430008140033","linkReferences":{}},"methodIdentifiers":{"allowance(address,address)":"dd62ed3e","approve(address,uint256)":"095ea7b3","balanceOf(address)":"70a08231","blockTimestampLast()":"c5700a02","burn(address)":"89afcb44","claimFees()":"d294f093","claimable0(address)":"4d5a9f8a","claimable1(address)":"a1ac4d13","current(address,uint256)":"517b3f82","currentCumulativePrices()":"1df8c717","decimals()":"313ce567","factory()":"c45a0155","fees()":"9af1d35a","getAmountOut(uint256,address)":"f140a35a","getReserves()":"0902f1ac","index0()":"32c0defd","index1()":"bda39cad","isStable()":"09047bdd","lastObservation()":"8a7b8cf2","metadata()":"392f37e9","mint(address)":"6a627842","name()":"06fdde03","nonces(address)":"7ecebe00","observationLength()":"ebeb31db","observations(uint256)":"252c09d7","permit(address,address,uint256,uint256,uint8,bytes32,bytes32)":"d505accf","prices(address,uint256,uint256)":"5881c475","quote(address,uint256,uint256)":"9e8cc04b","reserve0()":"443cb4bc","reserve0CumulativeLast()":"bf944dbc","reserve1()":"5a76f25e","reserve1CumulativeLast()":"c245febc","sample(address,uint256,uint256,uint256)":"13345fe1","skim(address)":"bc25cf77","stable()":"22be3de1","supplyIndex0(address)":"9f767c88","supplyIndex1(address)":"205aabf1","swap(uint256,uint256,address,bytes)":"022c0d9f","symbol()":"95d89b41","sync()":"fff6cae9","token0()":"0dfe1681","token1()":"d21220a7","tokens()":"9d63848a","totalSupply()":"18160ddd","transfer(address,uint256)":"a9059cbb","transferFrom(address,address,uint256)":"23b872dd"},"id":14}